{
	"funChall.sol": {
		"Func": {
			"abi": [
				{
					"inputs": [
						{
							"internalType": "uint256",
							"name": "_a",
							"type": "uint256"
						},
						{
							"internalType": "uint256",
							"name": "_b",
							"type": "uint256"
						}
					],
					"name": "add",
					"outputs": [
						{
							"internalType": "uint256",
							"name": "",
							"type": "uint256"
						}
					],
					"stateMutability": "pure",
					"type": "function"
				},
				{
					"inputs": [
						{
							"internalType": "uint256",
							"name": "_a",
							"type": "uint256"
						},
						{
							"internalType": "uint256",
							"name": "_b",
							"type": "uint256"
						}
					],
					"name": "div",
					"outputs": [
						{
							"internalType": "uint256",
							"name": "",
							"type": "uint256"
						}
					],
					"stateMutability": "pure",
					"type": "function"
				},
				{
					"inputs": [
						{
							"internalType": "uint256",
							"name": "_a",
							"type": "uint256"
						},
						{
							"internalType": "uint256",
							"name": "_b",
							"type": "uint256"
						}
					],
					"name": "mod",
					"outputs": [
						{
							"internalType": "uint256",
							"name": "",
							"type": "uint256"
						}
					],
					"stateMutability": "pure",
					"type": "function"
				},
				{
					"inputs": [
						{
							"internalType": "uint256",
							"name": "_a",
							"type": "uint256"
						},
						{
							"internalType": "uint256",
							"name": "_b",
							"type": "uint256"
						}
					],
					"name": "mul",
					"outputs": [
						{
							"internalType": "uint256",
							"name": "",
							"type": "uint256"
						}
					],
					"stateMutability": "pure",
					"type": "function"
				},
				{
					"inputs": [
						{
							"internalType": "uint256",
							"name": "_a",
							"type": "uint256"
						},
						{
							"internalType": "uint256",
							"name": "_b",
							"type": "uint256"
						}
					],
					"name": "sub",
					"outputs": [
						{
							"internalType": "uint256",
							"name": "",
							"type": "uint256"
						}
					],
					"stateMutability": "pure",
					"type": "function"
				}
			],
			"devdoc": {
				"kind": "dev",
				"methods": {},
				"version": 1
			},
			"evm": {
				"assembly": "    /* \"funChall.sol\":65:562  contract Func{... */\n  mstore(0x40, 0x80)\n  callvalue\n  dup1\n  iszero\n  tag_1\n  jumpi\n  0x00\n  dup1\n  revert\ntag_1:\n  pop\n  dataSize(sub_0)\n  dup1\n  dataOffset(sub_0)\n  0x00\n  codecopy\n  0x00\n  return\nstop\n\nsub_0: assembly {\n        /* \"funChall.sol\":65:562  contract Func{... */\n      mstore(0x40, 0x80)\n      callvalue\n      dup1\n      iszero\n      tag_1\n      jumpi\n      0x00\n      dup1\n      revert\n    tag_1:\n      pop\n      jumpi(tag_2, lt(calldatasize, 0x04))\n      shr(0xe0, calldataload(0x00))\n      dup1\n      0x771602f7\n      eq\n      tag_3\n      jumpi\n      dup1\n      0xa391c15b\n      eq\n      tag_4\n      jumpi\n      dup1\n      0xb67d77c5\n      eq\n      tag_5\n      jumpi\n      dup1\n      0xc8a4ac9c\n      eq\n      tag_6\n      jumpi\n      dup1\n      0xf43f523a\n      eq\n      tag_7\n      jumpi\n    tag_2:\n      0x00\n      dup1\n      revert\n        /* \"funChall.sol\":87:175  function add(uint _a,uint _b) external pure returns(uint){... */\n    tag_3:\n      tag_8\n      0x04\n      dup1\n      calldatasize\n      sub\n      dup2\n      add\n      swap1\n      tag_9\n      swap2\n      swap1\n      tag_10\n      jump\t// in\n    tag_9:\n      tag_11\n      jump\t// in\n    tag_8:\n      mload(0x40)\n      tag_12\n      swap2\n      swap1\n      tag_13\n      jump\t// in\n    tag_12:\n      mload(0x40)\n      dup1\n      swap2\n      sub\n      swap1\n      return\n        /* \"funChall.sol\":369:457  function div(uint _a,uint _b) external pure returns(uint){... */\n    tag_4:\n      tag_14\n      0x04\n      dup1\n      calldatasize\n      sub\n      dup2\n      add\n      swap1\n      tag_15\n      swap2\n      swap1\n      tag_10\n      jump\t// in\n    tag_15:\n      tag_16\n      jump\t// in\n    tag_14:\n      mload(0x40)\n      tag_17\n      swap2\n      swap1\n      tag_13\n      jump\t// in\n    tag_17:\n      mload(0x40)\n      dup1\n      swap2\n      sub\n      swap1\n      return\n        /* \"funChall.sol\":181:269  function sub(uint _a,uint _b) external pure returns(uint){... */\n    tag_5:\n      tag_18\n      0x04\n      dup1\n      calldatasize\n      sub\n      dup2\n      add\n      swap1\n      tag_19\n      swap2\n      swap1\n      tag_10\n      jump\t// in\n    tag_19:\n      tag_20\n      jump\t// in\n    tag_18:\n      mload(0x40)\n      tag_21\n      swap2\n      swap1\n      tag_13\n      jump\t// in\n    tag_21:\n      mload(0x40)\n      dup1\n      swap2\n      sub\n      swap1\n      return\n        /* \"funChall.sol\":275:363  function mul(uint _a,uint _b) external pure returns(uint){... */\n    tag_6:\n      tag_22\n      0x04\n      dup1\n      calldatasize\n      sub\n      dup2\n      add\n      swap1\n      tag_23\n      swap2\n      swap1\n      tag_10\n      jump\t// in\n    tag_23:\n      tag_24\n      jump\t// in\n    tag_22:\n      mload(0x40)\n      tag_25\n      swap2\n      swap1\n      tag_13\n      jump\t// in\n    tag_25:\n      mload(0x40)\n      dup1\n      swap2\n      sub\n      swap1\n      return\n        /* \"funChall.sol\":469:557  function mod(uint _a,uint _b) external pure returns(uint){... */\n    tag_7:\n      tag_26\n      0x04\n      dup1\n      calldatasize\n      sub\n      dup2\n      add\n      swap1\n      tag_27\n      swap2\n      swap1\n      tag_10\n      jump\t// in\n    tag_27:\n      tag_28\n      jump\t// in\n    tag_26:\n      mload(0x40)\n      tag_29\n      swap2\n      swap1\n      tag_13\n      jump\t// in\n    tag_29:\n      mload(0x40)\n      dup1\n      swap2\n      sub\n      swap1\n      return\n        /* \"funChall.sol\":87:175  function add(uint _a,uint _b) external pure returns(uint){... */\n    tag_11:\n        /* \"funChall.sol\":139:143  uint */\n      0x00\n        /* \"funChall.sol\":165:167  _b */\n      dup2\n        /* \"funChall.sol\":162:164  _a */\n      dup4\n        /* \"funChall.sol\":162:167  _a+_b */\n      tag_31\n      swap2\n      swap1\n      tag_32\n      jump\t// in\n    tag_31:\n        /* \"funChall.sol\":155:167  return _a+_b */\n      swap1\n      pop\n        /* \"funChall.sol\":87:175  function add(uint _a,uint _b) external pure returns(uint){... */\n      swap3\n      swap2\n      pop\n      pop\n      jump\t// out\n        /* \"funChall.sol\":369:457  function div(uint _a,uint _b) external pure returns(uint){... */\n    tag_16:\n        /* \"funChall.sol\":421:425  uint */\n      0x00\n        /* \"funChall.sol\":447:449  _b */\n      dup2\n        /* \"funChall.sol\":444:446  _a */\n      dup4\n        /* \"funChall.sol\":444:449  _a/_b */\n      tag_34\n      swap2\n      swap1\n      tag_35\n      jump\t// in\n    tag_34:\n        /* \"funChall.sol\":437:449  return _a/_b */\n      swap1\n      pop\n        /* \"funChall.sol\":369:457  function div(uint _a,uint _b) external pure returns(uint){... */\n      swap3\n      swap2\n      pop\n      pop\n      jump\t// out\n        /* \"funChall.sol\":181:269  function sub(uint _a,uint _b) external pure returns(uint){... */\n    tag_20:\n        /* \"funChall.sol\":233:237  uint */\n      0x00\n        /* \"funChall.sol\":259:261  _b */\n      dup2\n        /* \"funChall.sol\":256:258  _a */\n      dup4\n        /* \"funChall.sol\":256:261  _a-_b */\n      tag_37\n      swap2\n      swap1\n      tag_38\n      jump\t// in\n    tag_37:\n        /* \"funChall.sol\":249:261  return _a-_b */\n      swap1\n      pop\n        /* \"funChall.sol\":181:269  function sub(uint _a,uint _b) external pure returns(uint){... */\n      swap3\n      swap2\n      pop\n      pop\n      jump\t// out\n        /* \"funChall.sol\":275:363  function mul(uint _a,uint _b) external pure returns(uint){... */\n    tag_24:\n        /* \"funChall.sol\":327:331  uint */\n      0x00\n        /* \"funChall.sol\":353:355  _b */\n      dup2\n        /* \"funChall.sol\":350:352  _a */\n      dup4\n        /* \"funChall.sol\":350:355  _a*_b */\n      tag_40\n      swap2\n      swap1\n      tag_41\n      jump\t// in\n    tag_40:\n        /* \"funChall.sol\":343:355  return _a*_b */\n      swap1\n      pop\n        /* \"funChall.sol\":275:363  function mul(uint _a,uint _b) external pure returns(uint){... */\n      swap3\n      swap2\n      pop\n      pop\n      jump\t// out\n        /* \"funChall.sol\":469:557  function mod(uint _a,uint _b) external pure returns(uint){... */\n    tag_28:\n        /* \"funChall.sol\":521:525  uint */\n      0x00\n        /* \"funChall.sol\":547:549  _b */\n      dup2\n        /* \"funChall.sol\":544:546  _a */\n      dup4\n        /* \"funChall.sol\":544:549  _a%_b */\n      tag_43\n      swap2\n      swap1\n      tag_44\n      jump\t// in\n    tag_43:\n        /* \"funChall.sol\":537:549  return _a%_b */\n      swap1\n      pop\n        /* \"funChall.sol\":469:557  function mod(uint _a,uint _b) external pure returns(uint){... */\n      swap3\n      swap2\n      pop\n      pop\n      jump\t// out\n        /* \"#utility.yul\":88:205   */\n    tag_46:\n        /* \"#utility.yul\":197:198   */\n      0x00\n        /* \"#utility.yul\":194:195   */\n      dup1\n        /* \"#utility.yul\":187:199   */\n      revert\n        /* \"#utility.yul\":334:411   */\n    tag_48:\n        /* \"#utility.yul\":371:378   */\n      0x00\n        /* \"#utility.yul\":400:405   */\n      dup2\n        /* \"#utility.yul\":389:405   */\n      swap1\n      pop\n        /* \"#utility.yul\":334:411   */\n      swap2\n      swap1\n      pop\n      jump\t// out\n        /* \"#utility.yul\":417:539   */\n    tag_49:\n        /* \"#utility.yul\":490:514   */\n      tag_60\n        /* \"#utility.yul\":508:513   */\n      dup2\n        /* \"#utility.yul\":490:514   */\n      tag_48\n      jump\t// in\n    tag_60:\n        /* \"#utility.yul\":483:488   */\n      dup2\n        /* \"#utility.yul\":480:515   */\n      eq\n        /* \"#utility.yul\":470:533   */\n      tag_61\n      jumpi\n        /* \"#utility.yul\":529:530   */\n      0x00\n        /* \"#utility.yul\":526:527   */\n      dup1\n        /* \"#utility.yul\":519:531   */\n      revert\n        /* \"#utility.yul\":470:533   */\n    tag_61:\n        /* \"#utility.yul\":417:539   */\n      pop\n      jump\t// out\n        /* \"#utility.yul\":545:684   */\n    tag_50:\n        /* \"#utility.yul\":591:596   */\n      0x00\n        /* \"#utility.yul\":629:635   */\n      dup2\n        /* \"#utility.yul\":616:636   */\n      calldataload\n        /* \"#utility.yul\":607:636   */\n      swap1\n      pop\n        /* \"#utility.yul\":645:678   */\n      tag_63\n        /* \"#utility.yul\":672:677   */\n      dup2\n        /* \"#utility.yul\":645:678   */\n      tag_49\n      jump\t// in\n    tag_63:\n        /* \"#utility.yul\":545:684   */\n      swap3\n      swap2\n      pop\n      pop\n      jump\t// out\n        /* \"#utility.yul\":690:1164   */\n    tag_10:\n        /* \"#utility.yul\":758:764   */\n      0x00\n        /* \"#utility.yul\":766:772   */\n      dup1\n        /* \"#utility.yul\":815:817   */\n      0x40\n        /* \"#utility.yul\":803:812   */\n      dup4\n        /* \"#utility.yul\":794:801   */\n      dup6\n        /* \"#utility.yul\":790:813   */\n      sub\n        /* \"#utility.yul\":786:818   */\n      slt\n        /* \"#utility.yul\":783:902   */\n      iszero\n      tag_65\n      jumpi\n        /* \"#utility.yul\":821:900   */\n      tag_66\n      tag_46\n      jump\t// in\n    tag_66:\n        /* \"#utility.yul\":783:902   */\n    tag_65:\n        /* \"#utility.yul\":941:942   */\n      0x00\n        /* \"#utility.yul\":966:1019   */\n      tag_67\n        /* \"#utility.yul\":1011:1018   */\n      dup6\n        /* \"#utility.yul\":1002:1008   */\n      dup3\n        /* \"#utility.yul\":991:1000   */\n      dup7\n        /* \"#utility.yul\":987:1009   */\n      add\n        /* \"#utility.yul\":966:1019   */\n      tag_50\n      jump\t// in\n    tag_67:\n        /* \"#utility.yul\":956:1019   */\n      swap3\n      pop\n        /* \"#utility.yul\":912:1029   */\n      pop\n        /* \"#utility.yul\":1068:1070   */\n      0x20\n        /* \"#utility.yul\":1094:1147   */\n      tag_68\n        /* \"#utility.yul\":1139:1146   */\n      dup6\n        /* \"#utility.yul\":1130:1136   */\n      dup3\n        /* \"#utility.yul\":1119:1128   */\n      dup7\n        /* \"#utility.yul\":1115:1137   */\n      add\n        /* \"#utility.yul\":1094:1147   */\n      tag_50\n      jump\t// in\n    tag_68:\n        /* \"#utility.yul\":1084:1147   */\n      swap2\n      pop\n        /* \"#utility.yul\":1039:1157   */\n      pop\n        /* \"#utility.yul\":690:1164   */\n      swap3\n      pop\n      swap3\n      swap1\n      pop\n      jump\t// out\n        /* \"#utility.yul\":1170:1288   */\n    tag_51:\n        /* \"#utility.yul\":1257:1281   */\n      tag_70\n        /* \"#utility.yul\":1275:1280   */\n      dup2\n        /* \"#utility.yul\":1257:1281   */\n      tag_48\n      jump\t// in\n    tag_70:\n        /* \"#utility.yul\":1252:1255   */\n      dup3\n        /* \"#utility.yul\":1245:1282   */\n      mstore\n        /* \"#utility.yul\":1170:1288   */\n      pop\n      pop\n      jump\t// out\n        /* \"#utility.yul\":1294:1516   */\n    tag_13:\n        /* \"#utility.yul\":1387:1391   */\n      0x00\n        /* \"#utility.yul\":1425:1427   */\n      0x20\n        /* \"#utility.yul\":1414:1423   */\n      dup3\n        /* \"#utility.yul\":1410:1428   */\n      add\n        /* \"#utility.yul\":1402:1428   */\n      swap1\n      pop\n        /* \"#utility.yul\":1438:1509   */\n      tag_72\n        /* \"#utility.yul\":1506:1507   */\n      0x00\n        /* \"#utility.yul\":1495:1504   */\n      dup4\n        /* \"#utility.yul\":1491:1508   */\n      add\n        /* \"#utility.yul\":1482:1488   */\n      dup5\n        /* \"#utility.yul\":1438:1509   */\n      tag_51\n      jump\t// in\n    tag_72:\n        /* \"#utility.yul\":1294:1516   */\n      swap3\n      swap2\n      pop\n      pop\n      jump\t// out\n        /* \"#utility.yul\":1522:1702   */\n    tag_52:\n        /* \"#utility.yul\":1570:1647   */\n      0x4e487b7100000000000000000000000000000000000000000000000000000000\n        /* \"#utility.yul\":1567:1568   */\n      0x00\n        /* \"#utility.yul\":1560:1648   */\n      mstore\n        /* \"#utility.yul\":1667:1671   */\n      0x11\n        /* \"#utility.yul\":1664:1665   */\n      0x04\n        /* \"#utility.yul\":1657:1672   */\n      mstore\n        /* \"#utility.yul\":1691:1695   */\n      0x24\n        /* \"#utility.yul\":1688:1689   */\n      0x00\n        /* \"#utility.yul\":1681:1696   */\n      revert\n        /* \"#utility.yul\":1708:1899   */\n    tag_32:\n        /* \"#utility.yul\":1748:1751   */\n      0x00\n        /* \"#utility.yul\":1767:1787   */\n      tag_75\n        /* \"#utility.yul\":1785:1786   */\n      dup3\n        /* \"#utility.yul\":1767:1787   */\n      tag_48\n      jump\t// in\n    tag_75:\n        /* \"#utility.yul\":1762:1787   */\n      swap2\n      pop\n        /* \"#utility.yul\":1801:1821   */\n      tag_76\n        /* \"#utility.yul\":1819:1820   */\n      dup4\n        /* \"#utility.yul\":1801:1821   */\n      tag_48\n      jump\t// in\n    tag_76:\n        /* \"#utility.yul\":1796:1821   */\n      swap3\n      pop\n        /* \"#utility.yul\":1844:1845   */\n      dup3\n        /* \"#utility.yul\":1841:1842   */\n      dup3\n        /* \"#utility.yul\":1837:1846   */\n      add\n        /* \"#utility.yul\":1830:1846   */\n      swap1\n      pop\n        /* \"#utility.yul\":1865:1868   */\n      dup1\n        /* \"#utility.yul\":1862:1863   */\n      dup3\n        /* \"#utility.yul\":1859:1869   */\n      gt\n        /* \"#utility.yul\":1856:1892   */\n      iszero\n      tag_77\n      jumpi\n        /* \"#utility.yul\":1872:1890   */\n      tag_78\n      tag_52\n      jump\t// in\n    tag_78:\n        /* \"#utility.yul\":1856:1892   */\n    tag_77:\n        /* \"#utility.yul\":1708:1899   */\n      swap3\n      swap2\n      pop\n      pop\n      jump\t// out\n        /* \"#utility.yul\":1905:2085   */\n    tag_53:\n        /* \"#utility.yul\":1953:2030   */\n      0x4e487b7100000000000000000000000000000000000000000000000000000000\n        /* \"#utility.yul\":1950:1951   */\n      0x00\n        /* \"#utility.yul\":1943:2031   */\n      mstore\n        /* \"#utility.yul\":2050:2054   */\n      0x12\n        /* \"#utility.yul\":2047:2048   */\n      0x04\n        /* \"#utility.yul\":2040:2055   */\n      mstore\n        /* \"#utility.yul\":2074:2078   */\n      0x24\n        /* \"#utility.yul\":2071:2072   */\n      0x00\n        /* \"#utility.yul\":2064:2079   */\n      revert\n        /* \"#utility.yul\":2091:2276   */\n    tag_35:\n        /* \"#utility.yul\":2131:2132   */\n      0x00\n        /* \"#utility.yul\":2148:2168   */\n      tag_81\n        /* \"#utility.yul\":2166:2167   */\n      dup3\n        /* \"#utility.yul\":2148:2168   */\n      tag_48\n      jump\t// in\n    tag_81:\n        /* \"#utility.yul\":2143:2168   */\n      swap2\n      pop\n        /* \"#utility.yul\":2182:2202   */\n      tag_82\n        /* \"#utility.yul\":2200:2201   */\n      dup4\n        /* \"#utility.yul\":2182:2202   */\n      tag_48\n      jump\t// in\n    tag_82:\n        /* \"#utility.yul\":2177:2202   */\n      swap3\n      pop\n        /* \"#utility.yul\":2221:2222   */\n      dup3\n        /* \"#utility.yul\":2211:2246   */\n      tag_83\n      jumpi\n        /* \"#utility.yul\":2226:2244   */\n      tag_84\n      tag_53\n      jump\t// in\n    tag_84:\n        /* \"#utility.yul\":2211:2246   */\n    tag_83:\n        /* \"#utility.yul\":2268:2269   */\n      dup3\n        /* \"#utility.yul\":2265:2266   */\n      dup3\n        /* \"#utility.yul\":2261:2270   */\n      div\n        /* \"#utility.yul\":2256:2270   */\n      swap1\n      pop\n        /* \"#utility.yul\":2091:2276   */\n      swap3\n      swap2\n      pop\n      pop\n      jump\t// out\n        /* \"#utility.yul\":2282:2476   */\n    tag_38:\n        /* \"#utility.yul\":2322:2326   */\n      0x00\n        /* \"#utility.yul\":2342:2362   */\n      tag_86\n        /* \"#utility.yul\":2360:2361   */\n      dup3\n        /* \"#utility.yul\":2342:2362   */\n      tag_48\n      jump\t// in\n    tag_86:\n        /* \"#utility.yul\":2337:2362   */\n      swap2\n      pop\n        /* \"#utility.yul\":2376:2396   */\n      tag_87\n        /* \"#utility.yul\":2394:2395   */\n      dup4\n        /* \"#utility.yul\":2376:2396   */\n      tag_48\n      jump\t// in\n    tag_87:\n        /* \"#utility.yul\":2371:2396   */\n      swap3\n      pop\n        /* \"#utility.yul\":2420:2421   */\n      dup3\n        /* \"#utility.yul\":2417:2418   */\n      dup3\n        /* \"#utility.yul\":2413:2422   */\n      sub\n        /* \"#utility.yul\":2405:2422   */\n      swap1\n      pop\n        /* \"#utility.yul\":2444:2445   */\n      dup2\n        /* \"#utility.yul\":2438:2442   */\n      dup2\n        /* \"#utility.yul\":2435:2446   */\n      gt\n        /* \"#utility.yul\":2432:2469   */\n      iszero\n      tag_88\n      jumpi\n        /* \"#utility.yul\":2449:2467   */\n      tag_89\n      tag_52\n      jump\t// in\n    tag_89:\n        /* \"#utility.yul\":2432:2469   */\n    tag_88:\n        /* \"#utility.yul\":2282:2476   */\n      swap3\n      swap2\n      pop\n      pop\n      jump\t// out\n        /* \"#utility.yul\":2482:2892   */\n    tag_41:\n        /* \"#utility.yul\":2522:2529   */\n      0x00\n        /* \"#utility.yul\":2545:2565   */\n      tag_91\n        /* \"#utility.yul\":2563:2564   */\n      dup3\n        /* \"#utility.yul\":2545:2565   */\n      tag_48\n      jump\t// in\n    tag_91:\n        /* \"#utility.yul\":2540:2565   */\n      swap2\n      pop\n        /* \"#utility.yul\":2579:2599   */\n      tag_92\n        /* \"#utility.yul\":2597:2598   */\n      dup4\n        /* \"#utility.yul\":2579:2599   */\n      tag_48\n      jump\t// in\n    tag_92:\n        /* \"#utility.yul\":2574:2599   */\n      swap3\n      pop\n        /* \"#utility.yul\":2634:2635   */\n      dup3\n        /* \"#utility.yul\":2631:2632   */\n      dup3\n        /* \"#utility.yul\":2627:2636   */\n      mul\n        /* \"#utility.yul\":2656:2686   */\n      tag_93\n        /* \"#utility.yul\":2674:2685   */\n      dup2\n        /* \"#utility.yul\":2656:2686   */\n      tag_48\n      jump\t// in\n    tag_93:\n        /* \"#utility.yul\":2645:2686   */\n      swap2\n      pop\n        /* \"#utility.yul\":2835:2836   */\n      dup3\n        /* \"#utility.yul\":2826:2833   */\n      dup3\n        /* \"#utility.yul\":2822:2837   */\n      div\n        /* \"#utility.yul\":2819:2820   */\n      dup5\n        /* \"#utility.yul\":2816:2838   */\n      eq\n        /* \"#utility.yul\":2796:2797   */\n      dup4\n        /* \"#utility.yul\":2789:2798   */\n      iszero\n        /* \"#utility.yul\":2769:2852   */\n      or\n        /* \"#utility.yul\":2746:2885   */\n      tag_94\n      jumpi\n        /* \"#utility.yul\":2865:2883   */\n      tag_95\n      tag_52\n      jump\t// in\n    tag_95:\n        /* \"#utility.yul\":2746:2885   */\n    tag_94:\n        /* \"#utility.yul\":2530:2892   */\n      pop\n        /* \"#utility.yul\":2482:2892   */\n      swap3\n      swap2\n      pop\n      pop\n      jump\t// out\n        /* \"#utility.yul\":2898:3074   */\n    tag_44:\n        /* \"#utility.yul\":2930:2931   */\n      0x00\n        /* \"#utility.yul\":2947:2967   */\n      tag_97\n        /* \"#utility.yul\":2965:2966   */\n      dup3\n        /* \"#utility.yul\":2947:2967   */\n      tag_48\n      jump\t// in\n    tag_97:\n        /* \"#utility.yul\":2942:2967   */\n      swap2\n      pop\n        /* \"#utility.yul\":2981:3001   */\n      tag_98\n        /* \"#utility.yul\":2999:3000   */\n      dup4\n        /* \"#utility.yul\":2981:3001   */\n      tag_48\n      jump\t// in\n    tag_98:\n        /* \"#utility.yul\":2976:3001   */\n      swap3\n      pop\n        /* \"#utility.yul\":3020:3021   */\n      dup3\n        /* \"#utility.yul\":3010:3045   */\n      tag_99\n      jumpi\n        /* \"#utility.yul\":3025:3043   */\n      tag_100\n      tag_53\n      jump\t// in\n    tag_100:\n        /* \"#utility.yul\":3010:3045   */\n    tag_99:\n        /* \"#utility.yul\":3066:3067   */\n      dup3\n        /* \"#utility.yul\":3063:3064   */\n      dup3\n        /* \"#utility.yul\":3059:3068   */\n      mod\n        /* \"#utility.yul\":3054:3068   */\n      swap1\n      pop\n        /* \"#utility.yul\":2898:3074   */\n      swap3\n      swap2\n      pop\n      pop\n      jump\t// out\n\n    auxdata: 0xa2646970667358221220c3c5989e007e6b6ad1e90edb8bcd83afb59909822f2ee817340327c855e79e7964736f6c63430008120033\n}\n",
				"bytecode": {
					"linkReferences": {},
					"object": "608060405234801561001057600080fd5b506103ff806100206000396000f3fe608060405234801561001057600080fd5b50600436106100575760003560e01c8063771602f71461005c578063a391c15b1461008c578063b67d77c5146100bc578063c8a4ac9c146100ec578063f43f523a1461011c575b600080fd5b610076600480360381019061007191906101f5565b61014c565b6040516100839190610244565b60405180910390f35b6100a660048036038101906100a191906101f5565b610162565b6040516100b39190610244565b60405180910390f35b6100d660048036038101906100d191906101f5565b610178565b6040516100e39190610244565b60405180910390f35b610106600480360381019061010191906101f5565b61018e565b6040516101139190610244565b60405180910390f35b610136600480360381019061013191906101f5565b6101a4565b6040516101439190610244565b60405180910390f35b6000818361015a919061028e565b905092915050565b6000818361017091906102f1565b905092915050565b600081836101869190610322565b905092915050565b6000818361019c9190610356565b905092915050565b600081836101b29190610398565b905092915050565b600080fd5b6000819050919050565b6101d2816101bf565b81146101dd57600080fd5b50565b6000813590506101ef816101c9565b92915050565b6000806040838503121561020c5761020b6101ba565b5b600061021a858286016101e0565b925050602061022b858286016101e0565b9150509250929050565b61023e816101bf565b82525050565b60006020820190506102596000830184610235565b92915050565b7f4e487b7100000000000000000000000000000000000000000000000000000000600052601160045260246000fd5b6000610299826101bf565b91506102a4836101bf565b92508282019050808211156102bc576102bb61025f565b5b92915050565b7f4e487b7100000000000000000000000000000000000000000000000000000000600052601260045260246000fd5b60006102fc826101bf565b9150610307836101bf565b925082610317576103166102c2565b5b828204905092915050565b600061032d826101bf565b9150610338836101bf565b92508282039050818111156103505761034f61025f565b5b92915050565b6000610361826101bf565b915061036c836101bf565b925082820261037a816101bf565b915082820484148315176103915761039061025f565b5b5092915050565b60006103a3826101bf565b91506103ae836101bf565b9250826103be576103bd6102c2565b5b82820690509291505056fea2646970667358221220c3c5989e007e6b6ad1e90edb8bcd83afb59909822f2ee817340327c855e79e7964736f6c63430008120033",
					"opcodes": "PUSH1 0x80 PUSH1 0x40 MSTORE CALLVALUE DUP1 ISZERO PUSH2 0x10 JUMPI PUSH1 0x0 DUP1 REVERT JUMPDEST POP PUSH2 0x3FF DUP1 PUSH2 0x20 PUSH1 0x0 CODECOPY PUSH1 0x0 RETURN INVALID PUSH1 0x80 PUSH1 0x40 MSTORE CALLVALUE DUP1 ISZERO PUSH2 0x10 JUMPI PUSH1 0x0 DUP1 REVERT JUMPDEST POP PUSH1 0x4 CALLDATASIZE LT PUSH2 0x57 JUMPI PUSH1 0x0 CALLDATALOAD PUSH1 0xE0 SHR DUP1 PUSH4 0x771602F7 EQ PUSH2 0x5C JUMPI DUP1 PUSH4 0xA391C15B EQ PUSH2 0x8C JUMPI DUP1 PUSH4 0xB67D77C5 EQ PUSH2 0xBC JUMPI DUP1 PUSH4 0xC8A4AC9C EQ PUSH2 0xEC JUMPI DUP1 PUSH4 0xF43F523A EQ PUSH2 0x11C JUMPI JUMPDEST PUSH1 0x0 DUP1 REVERT JUMPDEST PUSH2 0x76 PUSH1 0x4 DUP1 CALLDATASIZE SUB DUP2 ADD SWAP1 PUSH2 0x71 SWAP2 SWAP1 PUSH2 0x1F5 JUMP JUMPDEST PUSH2 0x14C JUMP JUMPDEST PUSH1 0x40 MLOAD PUSH2 0x83 SWAP2 SWAP1 PUSH2 0x244 JUMP JUMPDEST PUSH1 0x40 MLOAD DUP1 SWAP2 SUB SWAP1 RETURN JUMPDEST PUSH2 0xA6 PUSH1 0x4 DUP1 CALLDATASIZE SUB DUP2 ADD SWAP1 PUSH2 0xA1 SWAP2 SWAP1 PUSH2 0x1F5 JUMP JUMPDEST PUSH2 0x162 JUMP JUMPDEST PUSH1 0x40 MLOAD PUSH2 0xB3 SWAP2 SWAP1 PUSH2 0x244 JUMP JUMPDEST PUSH1 0x40 MLOAD DUP1 SWAP2 SUB SWAP1 RETURN JUMPDEST PUSH2 0xD6 PUSH1 0x4 DUP1 CALLDATASIZE SUB DUP2 ADD SWAP1 PUSH2 0xD1 SWAP2 SWAP1 PUSH2 0x1F5 JUMP JUMPDEST PUSH2 0x178 JUMP JUMPDEST PUSH1 0x40 MLOAD PUSH2 0xE3 SWAP2 SWAP1 PUSH2 0x244 JUMP JUMPDEST PUSH1 0x40 MLOAD DUP1 SWAP2 SUB SWAP1 RETURN JUMPDEST PUSH2 0x106 PUSH1 0x4 DUP1 CALLDATASIZE SUB DUP2 ADD SWAP1 PUSH2 0x101 SWAP2 SWAP1 PUSH2 0x1F5 JUMP JUMPDEST PUSH2 0x18E JUMP JUMPDEST PUSH1 0x40 MLOAD PUSH2 0x113 SWAP2 SWAP1 PUSH2 0x244 JUMP JUMPDEST PUSH1 0x40 MLOAD DUP1 SWAP2 SUB SWAP1 RETURN JUMPDEST PUSH2 0x136 PUSH1 0x4 DUP1 CALLDATASIZE SUB DUP2 ADD SWAP1 PUSH2 0x131 SWAP2 SWAP1 PUSH2 0x1F5 JUMP JUMPDEST PUSH2 0x1A4 JUMP JUMPDEST PUSH1 0x40 MLOAD PUSH2 0x143 SWAP2 SWAP1 PUSH2 0x244 JUMP JUMPDEST PUSH1 0x40 MLOAD DUP1 SWAP2 SUB SWAP1 RETURN JUMPDEST PUSH1 0x0 DUP2 DUP4 PUSH2 0x15A SWAP2 SWAP1 PUSH2 0x28E JUMP JUMPDEST SWAP1 POP SWAP3 SWAP2 POP POP JUMP JUMPDEST PUSH1 0x0 DUP2 DUP4 PUSH2 0x170 SWAP2 SWAP1 PUSH2 0x2F1 JUMP JUMPDEST SWAP1 POP SWAP3 SWAP2 POP POP JUMP JUMPDEST PUSH1 0x0 DUP2 DUP4 PUSH2 0x186 SWAP2 SWAP1 PUSH2 0x322 JUMP JUMPDEST SWAP1 POP SWAP3 SWAP2 POP POP JUMP JUMPDEST PUSH1 0x0 DUP2 DUP4 PUSH2 0x19C SWAP2 SWAP1 PUSH2 0x356 JUMP JUMPDEST SWAP1 POP SWAP3 SWAP2 POP POP JUMP JUMPDEST PUSH1 0x0 DUP2 DUP4 PUSH2 0x1B2 SWAP2 SWAP1 PUSH2 0x398 JUMP JUMPDEST SWAP1 POP SWAP3 SWAP2 POP POP JUMP JUMPDEST PUSH1 0x0 DUP1 REVERT JUMPDEST PUSH1 0x0 DUP2 SWAP1 POP SWAP2 SWAP1 POP JUMP JUMPDEST PUSH2 0x1D2 DUP2 PUSH2 0x1BF JUMP JUMPDEST DUP2 EQ PUSH2 0x1DD JUMPI PUSH1 0x0 DUP1 REVERT JUMPDEST POP JUMP JUMPDEST PUSH1 0x0 DUP2 CALLDATALOAD SWAP1 POP PUSH2 0x1EF DUP2 PUSH2 0x1C9 JUMP JUMPDEST SWAP3 SWAP2 POP POP JUMP JUMPDEST PUSH1 0x0 DUP1 PUSH1 0x40 DUP4 DUP6 SUB SLT ISZERO PUSH2 0x20C JUMPI PUSH2 0x20B PUSH2 0x1BA JUMP JUMPDEST JUMPDEST PUSH1 0x0 PUSH2 0x21A DUP6 DUP3 DUP7 ADD PUSH2 0x1E0 JUMP JUMPDEST SWAP3 POP POP PUSH1 0x20 PUSH2 0x22B DUP6 DUP3 DUP7 ADD PUSH2 0x1E0 JUMP JUMPDEST SWAP2 POP POP SWAP3 POP SWAP3 SWAP1 POP JUMP JUMPDEST PUSH2 0x23E DUP2 PUSH2 0x1BF JUMP JUMPDEST DUP3 MSTORE POP POP JUMP JUMPDEST PUSH1 0x0 PUSH1 0x20 DUP3 ADD SWAP1 POP PUSH2 0x259 PUSH1 0x0 DUP4 ADD DUP5 PUSH2 0x235 JUMP JUMPDEST SWAP3 SWAP2 POP POP JUMP JUMPDEST PUSH32 0x4E487B7100000000000000000000000000000000000000000000000000000000 PUSH1 0x0 MSTORE PUSH1 0x11 PUSH1 0x4 MSTORE PUSH1 0x24 PUSH1 0x0 REVERT JUMPDEST PUSH1 0x0 PUSH2 0x299 DUP3 PUSH2 0x1BF JUMP JUMPDEST SWAP2 POP PUSH2 0x2A4 DUP4 PUSH2 0x1BF JUMP JUMPDEST SWAP3 POP DUP3 DUP3 ADD SWAP1 POP DUP1 DUP3 GT ISZERO PUSH2 0x2BC JUMPI PUSH2 0x2BB PUSH2 0x25F JUMP JUMPDEST JUMPDEST SWAP3 SWAP2 POP POP JUMP JUMPDEST PUSH32 0x4E487B7100000000000000000000000000000000000000000000000000000000 PUSH1 0x0 MSTORE PUSH1 0x12 PUSH1 0x4 MSTORE PUSH1 0x24 PUSH1 0x0 REVERT JUMPDEST PUSH1 0x0 PUSH2 0x2FC DUP3 PUSH2 0x1BF JUMP JUMPDEST SWAP2 POP PUSH2 0x307 DUP4 PUSH2 0x1BF JUMP JUMPDEST SWAP3 POP DUP3 PUSH2 0x317 JUMPI PUSH2 0x316 PUSH2 0x2C2 JUMP JUMPDEST JUMPDEST DUP3 DUP3 DIV SWAP1 POP SWAP3 SWAP2 POP POP JUMP JUMPDEST PUSH1 0x0 PUSH2 0x32D DUP3 PUSH2 0x1BF JUMP JUMPDEST SWAP2 POP PUSH2 0x338 DUP4 PUSH2 0x1BF JUMP JUMPDEST SWAP3 POP DUP3 DUP3 SUB SWAP1 POP DUP2 DUP2 GT ISZERO PUSH2 0x350 JUMPI PUSH2 0x34F PUSH2 0x25F JUMP JUMPDEST JUMPDEST SWAP3 SWAP2 POP POP JUMP JUMPDEST PUSH1 0x0 PUSH2 0x361 DUP3 PUSH2 0x1BF JUMP JUMPDEST SWAP2 POP PUSH2 0x36C DUP4 PUSH2 0x1BF JUMP JUMPDEST SWAP3 POP DUP3 DUP3 MUL PUSH2 0x37A DUP2 PUSH2 0x1BF JUMP JUMPDEST SWAP2 POP DUP3 DUP3 DIV DUP5 EQ DUP4 ISZERO OR PUSH2 0x391 JUMPI PUSH2 0x390 PUSH2 0x25F JUMP JUMPDEST JUMPDEST POP SWAP3 SWAP2 POP POP JUMP JUMPDEST PUSH1 0x0 PUSH2 0x3A3 DUP3 PUSH2 0x1BF JUMP JUMPDEST SWAP2 POP PUSH2 0x3AE DUP4 PUSH2 0x1BF JUMP JUMPDEST SWAP3 POP DUP3 PUSH2 0x3BE JUMPI PUSH2 0x3BD PUSH2 0x2C2 JUMP JUMPDEST JUMPDEST DUP3 DUP3 MOD SWAP1 POP SWAP3 SWAP2 POP POP JUMP INVALID LOG2 PUSH5 0x6970667358 0x22 SLT KECCAK256 0xC3 0xC5 SWAP9 SWAP15 STOP PUSH31 0x6B6AD1E90EDB8BCD83AFB59909822F2EE817340327C855E79E7964736F6C63 NUMBER STOP ADDMOD SLT STOP CALLER "
				},
				"gasEstimates": {
					"creation": {
						"codeDepositCost": "204600",
						"executionCost": "245",
						"totalCost": "204845"
					},
					"external": {
						"add(uint256,uint256)": "infinite",
						"div(uint256,uint256)": "infinite",
						"mod(uint256,uint256)": "infinite",
						"mul(uint256,uint256)": "infinite",
						"sub(uint256,uint256)": "infinite"
					}
				},
				"methodIdentifiers": {
					"add(uint256,uint256)": "771602f7",
					"div(uint256,uint256)": "a391c15b",
					"mod(uint256,uint256)": "f43f523a",
					"mul(uint256,uint256)": "c8a4ac9c",
					"sub(uint256,uint256)": "b67d77c5"
				}
			},
			"storageLayout": {
				"storage": [],
				"types": null
			},
			"userdoc": {
				"kind": "user",
				"methods": {},
				"version": 1
			}
		}
	}
}