{
	"HelloWorld.sol": {
		"Printer": {
			"abi": [
				{
					"inputs": [],
					"name": "get",
					"outputs": [
						{
							"internalType": "uint256",
							"name": "",
							"type": "uint256"
						},
						{
							"internalType": "int256",
							"name": "",
							"type": "int256"
						},
						{
							"internalType": "bool",
							"name": "",
							"type": "bool"
						},
						{
							"internalType": "string",
							"name": "",
							"type": "string"
						}
					],
					"stateMutability": "view",
					"type": "function"
				},
				{
					"inputs": [
						{
							"internalType": "uint256",
							"name": "_a",
							"type": "uint256"
						},
						{
							"internalType": "string",
							"name": "_b",
							"type": "string"
						},
						{
							"internalType": "bool",
							"name": "_c",
							"type": "bool"
						},
						{
							"internalType": "int256",
							"name": "_d",
							"type": "int256"
						}
					],
					"name": "set",
					"outputs": [],
					"stateMutability": "nonpayable",
					"type": "function"
				}
			],
			"devdoc": {
				"kind": "dev",
				"methods": {},
				"version": 1
			},
			"evm": {
				"assembly": "    /* \"HelloWorld.sol\":61:423  contract Printer{\r... */\n  mstore(0x40, 0x80)\n    /* \"HelloWorld.sol\":92:95  453 */\n  0x01c5\n    /* \"HelloWorld.sol\":84:95  uint a= 453 */\n  0x00\n  sstore\n    /* \"HelloWorld.sol\":102:115  string b=\"Hi\" */\n  mload(0x40)\n  dup1\n  0x40\n  add\n  0x40\n  mstore\n  dup1\n  0x02\n  dup2\n  mstore\n  0x20\n  add\n  0x4869000000000000000000000000000000000000000000000000000000000000\n  dup2\n  mstore\n  pop\n  0x01\n  swap1\n  dup1\n  mload\n  swap1\n  0x20\n  add\n  swap1\n  tag_1\n  swap3\n  swap2\n  swap1\n  tag_2\n  jump\t// in\ntag_1:\n  pop\n    /* \"HelloWorld.sol\":131:135  true */\n  0x01\n    /* \"HelloWorld.sol\":122:135  bool c = true */\n  0x02\n  exp(0x0100, 0x00)\n  dup2\n  sload\n  dup2\n  0xff\n  mul\n  not\n  and\n  swap1\n  dup4\n  iszero\n  iszero\n  mul\n  or\n  swap1\n  sstore\n  pop\n    /* \"HelloWorld.sol\":150:152  -2 */\n  0xfffffffffffffffffffffffffffffffffffffffffffffffffffffffffffffffe\n    /* \"HelloWorld.sol\":142:152  int d = -2 */\n  0x03\n  sstore\n    /* \"HelloWorld.sol\":61:423  contract Printer{\r... */\n  callvalue\n  dup1\n  iszero\n  tag_3\n  jumpi\n  0x00\n  dup1\n  revert\ntag_3:\n  pop\n  jump(tag_4)\ntag_2:\n  dup3\n  dup1\n  sload\n  tag_5\n  swap1\n  tag_6\n  jump\t// in\ntag_5:\n  swap1\n  0x00\n  mstore\n  keccak256(0x00, 0x20)\n  swap1\n  0x1f\n  add\n  0x20\n  swap1\n  div\n  dup2\n  add\n  swap3\n  dup3\n  tag_8\n  jumpi\n  0x00\n  dup6\n  sstore\n  jump(tag_7)\ntag_8:\n  dup3\n  0x1f\n  lt\n  tag_9\n  jumpi\n  dup1\n  mload\n  not(0xff)\n  and\n  dup4\n  dup1\n  add\n  or\n  dup6\n  sstore\n  jump(tag_7)\ntag_9:\n  dup3\n  dup1\n  add\n  0x01\n  add\n  dup6\n  sstore\n  dup3\n  iszero\n  tag_7\n  jumpi\n  swap2\n  dup3\n  add\ntag_10:\n  dup3\n  dup2\n  gt\n  iszero\n  tag_11\n  jumpi\n  dup3\n  mload\n  dup3\n  sstore\n  swap2\n  0x20\n  add\n  swap2\n  swap1\n  0x01\n  add\n  swap1\n  jump(tag_10)\ntag_11:\ntag_7:\n  pop\n  swap1\n  pop\n  tag_12\n  swap2\n  swap1\n  tag_13\n  jump\t// in\ntag_12:\n  pop\n  swap1\n  jump\t// out\ntag_13:\ntag_14:\n  dup1\n  dup3\n  gt\n  iszero\n  tag_15\n  jumpi\n  0x00\n  dup2\n  0x00\n  swap1\n  sstore\n  pop\n  0x01\n  add\n  jump(tag_14)\ntag_15:\n  pop\n  swap1\n  jump\t// out\n    /* \"#utility.yul\":7:327   */\ntag_6:\n    /* \"#utility.yul\":51:57   */\n  0x00\n    /* \"#utility.yul\":88:89   */\n  0x02\n    /* \"#utility.yul\":82:86   */\n  dup3\n    /* \"#utility.yul\":78:90   */\n  div\n    /* \"#utility.yul\":68:90   */\n  swap1\n  pop\n    /* \"#utility.yul\":135:136   */\n  0x01\n    /* \"#utility.yul\":129:133   */\n  dup3\n    /* \"#utility.yul\":125:137   */\n  and\n    /* \"#utility.yul\":156:174   */\n  dup1\n    /* \"#utility.yul\":146:227   */\n  tag_18\n  jumpi\n    /* \"#utility.yul\":212:216   */\n  0x7f\n    /* \"#utility.yul\":204:210   */\n  dup3\n    /* \"#utility.yul\":200:217   */\n  and\n    /* \"#utility.yul\":190:217   */\n  swap2\n  pop\n    /* \"#utility.yul\":146:227   */\ntag_18:\n    /* \"#utility.yul\":274:276   */\n  0x20\n    /* \"#utility.yul\":266:272   */\n  dup3\n    /* \"#utility.yul\":263:277   */\n  lt\n    /* \"#utility.yul\":243:261   */\n  dup2\n    /* \"#utility.yul\":240:278   */\n  eq\n    /* \"#utility.yul\":237:321   */\n  iszero\n  tag_19\n  jumpi\n    /* \"#utility.yul\":293:311   */\n  tag_20\n  tag_21\n  jump\t// in\ntag_20:\n    /* \"#utility.yul\":237:321   */\ntag_19:\n    /* \"#utility.yul\":58:327   */\n  pop\n    /* \"#utility.yul\":7:327   */\n  swap2\n  swap1\n  pop\n  jump\t// out\n    /* \"#utility.yul\":333:513   */\ntag_21:\n    /* \"#utility.yul\":381:458   */\n  0x4e487b7100000000000000000000000000000000000000000000000000000000\n    /* \"#utility.yul\":378:379   */\n  0x00\n    /* \"#utility.yul\":371:459   */\n  mstore\n    /* \"#utility.yul\":478:482   */\n  0x22\n    /* \"#utility.yul\":475:476   */\n  0x04\n    /* \"#utility.yul\":468:483   */\n  mstore\n    /* \"#utility.yul\":502:506   */\n  0x24\n    /* \"#utility.yul\":499:500   */\n  0x00\n    /* \"#utility.yul\":492:507   */\n  revert\n    /* \"HelloWorld.sol\":61:423  contract Printer{\r... */\ntag_4:\n  dataSize(sub_0)\n  dup1\n  dataOffset(sub_0)\n  0x00\n  codecopy\n  0x00\n  return\nstop\n\nsub_0: assembly {\n        /* \"HelloWorld.sol\":61:423  contract Printer{\r... */\n      mstore(0x40, 0x80)\n      callvalue\n      dup1\n      iszero\n      tag_1\n      jumpi\n      0x00\n      dup1\n      revert\n    tag_1:\n      pop\n      jumpi(tag_2, lt(calldatasize, 0x04))\n      shr(0xe0, calldataload(0x00))\n      dup1\n      0x6d4ce63c\n      eq\n      tag_3\n      jumpi\n      dup1\n      0xd988d39e\n      eq\n      tag_4\n      jumpi\n    tag_2:\n      0x00\n      dup1\n      revert\n        /* \"HelloWorld.sol\":317:415  function get() public view returns(uint,int,bool,string memory){\r... */\n    tag_3:\n      tag_5\n      tag_6\n      jump\t// in\n    tag_5:\n      mload(0x40)\n      tag_7\n      swap5\n      swap4\n      swap3\n      swap2\n      swap1\n      tag_8\n      jump\t// in\n    tag_7:\n      mload(0x40)\n      dup1\n      swap2\n      sub\n      swap1\n      return\n        /* \"HelloWorld.sol\":159:311  function set(uint _a,string memory _b,bool _c,int _d) public {\r... */\n    tag_4:\n      tag_9\n      0x04\n      dup1\n      calldatasize\n      sub\n      dup2\n      add\n      swap1\n      tag_10\n      swap2\n      swap1\n      tag_11\n      jump\t// in\n    tag_10:\n      tag_12\n      jump\t// in\n    tag_9:\n      stop\n        /* \"HelloWorld.sol\":317:415  function get() public view returns(uint,int,bool,string memory){\r... */\n    tag_6:\n        /* \"HelloWorld.sol\":352:356  uint */\n      0x00\n        /* \"HelloWorld.sol\":357:360  int */\n      dup1\n        /* \"HelloWorld.sol\":361:365  bool */\n      0x00\n        /* \"HelloWorld.sol\":366:379  string memory */\n      0x60\n        /* \"HelloWorld.sol\":399:400  a */\n      sload(0x00)\n        /* \"HelloWorld.sol\":401:402  d */\n      sload(0x03)\n        /* \"HelloWorld.sol\":403:404  c */\n      0x02\n      0x00\n      swap1\n      sload\n      swap1\n      0x0100\n      exp\n      swap1\n      div\n      0xff\n      and\n        /* \"HelloWorld.sol\":405:406  b */\n      0x01\n        /* \"HelloWorld.sol\":391:407  return (a,d,c,b) */\n      dup1\n      dup1\n      sload\n      tag_14\n      swap1\n      tag_15\n      jump\t// in\n    tag_14:\n      dup1\n      0x1f\n      add\n      0x20\n      dup1\n      swap2\n      div\n      mul\n      0x20\n      add\n      mload(0x40)\n      swap1\n      dup2\n      add\n      0x40\n      mstore\n      dup1\n      swap3\n      swap2\n      swap1\n      dup2\n      dup2\n      mstore\n      0x20\n      add\n      dup3\n      dup1\n      sload\n      tag_16\n      swap1\n      tag_15\n      jump\t// in\n    tag_16:\n      dup1\n      iszero\n      tag_17\n      jumpi\n      dup1\n      0x1f\n      lt\n      tag_18\n      jumpi\n      0x0100\n      dup1\n      dup4\n      sload\n      div\n      mul\n      dup4\n      mstore\n      swap2\n      0x20\n      add\n      swap2\n      jump(tag_17)\n    tag_18:\n      dup3\n      add\n      swap2\n      swap1\n      0x00\n      mstore\n      keccak256(0x00, 0x20)\n      swap1\n    tag_19:\n      dup2\n      sload\n      dup2\n      mstore\n      swap1\n      0x01\n      add\n      swap1\n      0x20\n      add\n      dup1\n      dup4\n      gt\n      tag_19\n      jumpi\n      dup3\n      swap1\n      sub\n      0x1f\n      and\n      dup3\n      add\n      swap2\n    tag_17:\n      pop\n      pop\n      pop\n      pop\n      pop\n      swap1\n      pop\n      swap4\n      pop\n      swap4\n      pop\n      swap4\n      pop\n      swap4\n      pop\n        /* \"HelloWorld.sol\":317:415  function get() public view returns(uint,int,bool,string memory){\r... */\n      swap1\n      swap2\n      swap3\n      swap4\n      jump\t// out\n        /* \"HelloWorld.sol\":159:311  function set(uint _a,string memory _b,bool _c,int _d) public {\r... */\n    tag_12:\n        /* \"HelloWorld.sol\":233:235  _a */\n      dup4\n        /* \"HelloWorld.sol\":231:232  a */\n      0x00\n        /* \"HelloWorld.sol\":231:235  a=_a */\n      dup2\n      swap1\n      sstore\n      pop\n        /* \"HelloWorld.sol\":248:250  _b */\n      dup3\n        /* \"HelloWorld.sol\":246:247  b */\n      0x01\n        /* \"HelloWorld.sol\":246:250  b=_b */\n      swap1\n      dup1\n      mload\n      swap1\n      0x20\n      add\n      swap1\n      tag_21\n      swap3\n      swap2\n      swap1\n      tag_22\n      jump\t// in\n    tag_21:\n      pop\n        /* \"HelloWorld.sol\":267:269  _c */\n      dup2\n        /* \"HelloWorld.sol\":264:269  c!=_c */\n      iszero\n      iszero\n        /* \"HelloWorld.sol\":264:265  c */\n      0x02\n      0x00\n      swap1\n      sload\n      swap1\n      0x0100\n      exp\n      swap1\n      div\n      0xff\n      and\n        /* \"HelloWorld.sol\":264:269  c!=_c */\n      iszero\n      iszero\n      eq\n        /* \"HelloWorld.sol\":261:288  if(c!=_c)\r... */\n      tag_23\n      jumpi\n        /* \"HelloWorld.sol\":286:288  _c */\n      dup2\n        /* \"HelloWorld.sol\":284:285  c */\n      0x02\n      0x00\n        /* \"HelloWorld.sol\":284:288  c=_c */\n      0x0100\n      exp\n      dup2\n      sload\n      dup2\n      0xff\n      mul\n      not\n      and\n      swap1\n      dup4\n      iszero\n      iszero\n      mul\n      or\n      swap1\n      sstore\n      pop\n        /* \"HelloWorld.sol\":261:288  if(c!=_c)\r... */\n    tag_23:\n        /* \"HelloWorld.sol\":301:303  _d */\n      dup1\n        /* \"HelloWorld.sol\":299:300  d */\n      0x03\n        /* \"HelloWorld.sol\":299:303  d=_d */\n      dup2\n      swap1\n      sstore\n      pop\n        /* \"HelloWorld.sol\":159:311  function set(uint _a,string memory _b,bool _c,int _d) public {\r... */\n      pop\n      pop\n      pop\n      pop\n      jump\t// out\n    tag_22:\n      dup3\n      dup1\n      sload\n      tag_24\n      swap1\n      tag_15\n      jump\t// in\n    tag_24:\n      swap1\n      0x00\n      mstore\n      keccak256(0x00, 0x20)\n      swap1\n      0x1f\n      add\n      0x20\n      swap1\n      div\n      dup2\n      add\n      swap3\n      dup3\n      tag_26\n      jumpi\n      0x00\n      dup6\n      sstore\n      jump(tag_25)\n    tag_26:\n      dup3\n      0x1f\n      lt\n      tag_27\n      jumpi\n      dup1\n      mload\n      not(0xff)\n      and\n      dup4\n      dup1\n      add\n      or\n      dup6\n      sstore\n      jump(tag_25)\n    tag_27:\n      dup3\n      dup1\n      add\n      0x01\n      add\n      dup6\n      sstore\n      dup3\n      iszero\n      tag_25\n      jumpi\n      swap2\n      dup3\n      add\n    tag_28:\n      dup3\n      dup2\n      gt\n      iszero\n      tag_29\n      jumpi\n      dup3\n      mload\n      dup3\n      sstore\n      swap2\n      0x20\n      add\n      swap2\n      swap1\n      0x01\n      add\n      swap1\n      jump(tag_28)\n    tag_29:\n    tag_25:\n      pop\n      swap1\n      pop\n      tag_30\n      swap2\n      swap1\n      tag_31\n      jump\t// in\n    tag_30:\n      pop\n      swap1\n      jump\t// out\n    tag_31:\n    tag_32:\n      dup1\n      dup3\n      gt\n      iszero\n      tag_33\n      jumpi\n      0x00\n      dup2\n      0x00\n      swap1\n      sstore\n      pop\n      0x01\n      add\n      jump(tag_32)\n    tag_33:\n      pop\n      swap1\n      jump\t// out\n        /* \"#utility.yul\":7:419   */\n    tag_35:\n        /* \"#utility.yul\":85:90   */\n      0x00\n        /* \"#utility.yul\":110:176   */\n      tag_37\n        /* \"#utility.yul\":126:175   */\n      tag_38\n        /* \"#utility.yul\":168:174   */\n      dup5\n        /* \"#utility.yul\":126:175   */\n      tag_39\n      jump\t// in\n    tag_38:\n        /* \"#utility.yul\":110:176   */\n      tag_40\n      jump\t// in\n    tag_37:\n        /* \"#utility.yul\":101:176   */\n      swap1\n      pop\n        /* \"#utility.yul\":199:205   */\n      dup3\n        /* \"#utility.yul\":192:197   */\n      dup2\n        /* \"#utility.yul\":185:206   */\n      mstore\n        /* \"#utility.yul\":237:241   */\n      0x20\n        /* \"#utility.yul\":230:235   */\n      dup2\n        /* \"#utility.yul\":226:242   */\n      add\n        /* \"#utility.yul\":275:278   */\n      dup5\n        /* \"#utility.yul\":266:272   */\n      dup5\n        /* \"#utility.yul\":261:264   */\n      dup5\n        /* \"#utility.yul\":257:273   */\n      add\n        /* \"#utility.yul\":254:279   */\n      gt\n        /* \"#utility.yul\":251:363   */\n      iszero\n      tag_41\n      jumpi\n        /* \"#utility.yul\":282:361   */\n      tag_42\n      tag_43\n      jump\t// in\n    tag_42:\n        /* \"#utility.yul\":251:363   */\n    tag_41:\n        /* \"#utility.yul\":372:413   */\n      tag_44\n        /* \"#utility.yul\":406:412   */\n      dup5\n        /* \"#utility.yul\":401:404   */\n      dup3\n        /* \"#utility.yul\":396:399   */\n      dup6\n        /* \"#utility.yul\":372:413   */\n      tag_45\n      jump\t// in\n    tag_44:\n        /* \"#utility.yul\":91:419   */\n      pop\n        /* \"#utility.yul\":7:419   */\n      swap4\n      swap3\n      pop\n      pop\n      pop\n      jump\t// out\n        /* \"#utility.yul\":425:558   */\n    tag_46:\n        /* \"#utility.yul\":468:473   */\n      0x00\n        /* \"#utility.yul\":506:512   */\n      dup2\n        /* \"#utility.yul\":493:513   */\n      calldataload\n        /* \"#utility.yul\":484:513   */\n      swap1\n      pop\n        /* \"#utility.yul\":522:552   */\n      tag_48\n        /* \"#utility.yul\":546:551   */\n      dup2\n        /* \"#utility.yul\":522:552   */\n      tag_49\n      jump\t// in\n    tag_48:\n        /* \"#utility.yul\":425:558   */\n      swap3\n      swap2\n      pop\n      pop\n      jump\t// out\n        /* \"#utility.yul\":564:701   */\n    tag_50:\n        /* \"#utility.yul\":609:614   */\n      0x00\n        /* \"#utility.yul\":647:653   */\n      dup2\n        /* \"#utility.yul\":634:654   */\n      calldataload\n        /* \"#utility.yul\":625:654   */\n      swap1\n      pop\n        /* \"#utility.yul\":663:695   */\n      tag_52\n        /* \"#utility.yul\":689:694   */\n      dup2\n        /* \"#utility.yul\":663:695   */\n      tag_53\n      jump\t// in\n    tag_52:\n        /* \"#utility.yul\":564:701   */\n      swap3\n      swap2\n      pop\n      pop\n      jump\t// out\n        /* \"#utility.yul\":721:1061   */\n    tag_54:\n        /* \"#utility.yul\":777:782   */\n      0x00\n        /* \"#utility.yul\":826:829   */\n      dup3\n        /* \"#utility.yul\":819:823   */\n      0x1f\n        /* \"#utility.yul\":811:817   */\n      dup4\n        /* \"#utility.yul\":807:824   */\n      add\n        /* \"#utility.yul\":803:830   */\n      slt\n        /* \"#utility.yul\":793:915   */\n      tag_56\n      jumpi\n        /* \"#utility.yul\":834:913   */\n      tag_57\n      tag_58\n      jump\t// in\n    tag_57:\n        /* \"#utility.yul\":793:915   */\n    tag_56:\n        /* \"#utility.yul\":951:957   */\n      dup2\n        /* \"#utility.yul\":938:958   */\n      calldataload\n        /* \"#utility.yul\":976:1055   */\n      tag_59\n        /* \"#utility.yul\":1051:1054   */\n      dup5\n        /* \"#utility.yul\":1043:1049   */\n      dup3\n        /* \"#utility.yul\":1036:1040   */\n      0x20\n        /* \"#utility.yul\":1028:1034   */\n      dup7\n        /* \"#utility.yul\":1024:1041   */\n      add\n        /* \"#utility.yul\":976:1055   */\n      tag_35\n      jump\t// in\n    tag_59:\n        /* \"#utility.yul\":967:1055   */\n      swap2\n      pop\n        /* \"#utility.yul\":783:1061   */\n      pop\n        /* \"#utility.yul\":721:1061   */\n      swap3\n      swap2\n      pop\n      pop\n      jump\t// out\n        /* \"#utility.yul\":1067:1206   */\n    tag_60:\n        /* \"#utility.yul\":1113:1118   */\n      0x00\n        /* \"#utility.yul\":1151:1157   */\n      dup2\n        /* \"#utility.yul\":1138:1158   */\n      calldataload\n        /* \"#utility.yul\":1129:1158   */\n      swap1\n      pop\n        /* \"#utility.yul\":1167:1200   */\n      tag_62\n        /* \"#utility.yul\":1194:1199   */\n      dup2\n        /* \"#utility.yul\":1167:1200   */\n      tag_63\n      jump\t// in\n    tag_62:\n        /* \"#utility.yul\":1067:1206   */\n      swap3\n      swap2\n      pop\n      pop\n      jump\t// out\n        /* \"#utility.yul\":1212:2149   */\n    tag_11:\n        /* \"#utility.yul\":1304:1310   */\n      0x00\n        /* \"#utility.yul\":1312:1318   */\n      dup1\n        /* \"#utility.yul\":1320:1326   */\n      0x00\n        /* \"#utility.yul\":1328:1334   */\n      dup1\n        /* \"#utility.yul\":1377:1380   */\n      0x80\n        /* \"#utility.yul\":1365:1374   */\n      dup6\n        /* \"#utility.yul\":1356:1363   */\n      dup8\n        /* \"#utility.yul\":1352:1375   */\n      sub\n        /* \"#utility.yul\":1348:1381   */\n      slt\n        /* \"#utility.yul\":1345:1465   */\n      iszero\n      tag_65\n      jumpi\n        /* \"#utility.yul\":1384:1463   */\n      tag_66\n      tag_67\n      jump\t// in\n    tag_66:\n        /* \"#utility.yul\":1345:1465   */\n    tag_65:\n        /* \"#utility.yul\":1504:1505   */\n      0x00\n        /* \"#utility.yul\":1529:1582   */\n      tag_68\n        /* \"#utility.yul\":1574:1581   */\n      dup8\n        /* \"#utility.yul\":1565:1571   */\n      dup3\n        /* \"#utility.yul\":1554:1563   */\n      dup9\n        /* \"#utility.yul\":1550:1572   */\n      add\n        /* \"#utility.yul\":1529:1582   */\n      tag_60\n      jump\t// in\n    tag_68:\n        /* \"#utility.yul\":1519:1582   */\n      swap5\n      pop\n        /* \"#utility.yul\":1475:1592   */\n      pop\n        /* \"#utility.yul\":1659:1661   */\n      0x20\n        /* \"#utility.yul\":1648:1657   */\n      dup6\n        /* \"#utility.yul\":1644:1662   */\n      add\n        /* \"#utility.yul\":1631:1663   */\n      calldataload\n        /* \"#utility.yul\":1690:1708   */\n      0xffffffffffffffff\n        /* \"#utility.yul\":1682:1688   */\n      dup2\n        /* \"#utility.yul\":1679:1709   */\n      gt\n        /* \"#utility.yul\":1676:1793   */\n      iszero\n      tag_69\n      jumpi\n        /* \"#utility.yul\":1712:1791   */\n      tag_70\n      tag_71\n      jump\t// in\n    tag_70:\n        /* \"#utility.yul\":1676:1793   */\n    tag_69:\n        /* \"#utility.yul\":1817:1880   */\n      tag_72\n        /* \"#utility.yul\":1872:1879   */\n      dup8\n        /* \"#utility.yul\":1863:1869   */\n      dup3\n        /* \"#utility.yul\":1852:1861   */\n      dup9\n        /* \"#utility.yul\":1848:1870   */\n      add\n        /* \"#utility.yul\":1817:1880   */\n      tag_54\n      jump\t// in\n    tag_72:\n        /* \"#utility.yul\":1807:1880   */\n      swap4\n      pop\n        /* \"#utility.yul\":1602:1890   */\n      pop\n        /* \"#utility.yul\":1929:1931   */\n      0x40\n        /* \"#utility.yul\":1955:2005   */\n      tag_73\n        /* \"#utility.yul\":1997:2004   */\n      dup8\n        /* \"#utility.yul\":1988:1994   */\n      dup3\n        /* \"#utility.yul\":1977:1986   */\n      dup9\n        /* \"#utility.yul\":1973:1995   */\n      add\n        /* \"#utility.yul\":1955:2005   */\n      tag_46\n      jump\t// in\n    tag_73:\n        /* \"#utility.yul\":1945:2005   */\n      swap3\n      pop\n        /* \"#utility.yul\":1900:2015   */\n      pop\n        /* \"#utility.yul\":2054:2056   */\n      0x60\n        /* \"#utility.yul\":2080:2132   */\n      tag_74\n        /* \"#utility.yul\":2124:2131   */\n      dup8\n        /* \"#utility.yul\":2115:2121   */\n      dup3\n        /* \"#utility.yul\":2104:2113   */\n      dup9\n        /* \"#utility.yul\":2100:2122   */\n      add\n        /* \"#utility.yul\":2080:2132   */\n      tag_50\n      jump\t// in\n    tag_74:\n        /* \"#utility.yul\":2070:2132   */\n      swap2\n      pop\n        /* \"#utility.yul\":2025:2142   */\n      pop\n        /* \"#utility.yul\":1212:2149   */\n      swap3\n      swap6\n      swap2\n      swap5\n      pop\n      swap3\n      pop\n      jump\t// out\n        /* \"#utility.yul\":2155:2264   */\n    tag_75:\n        /* \"#utility.yul\":2236:2257   */\n      tag_77\n        /* \"#utility.yul\":2251:2256   */\n      dup2\n        /* \"#utility.yul\":2236:2257   */\n      tag_78\n      jump\t// in\n    tag_77:\n        /* \"#utility.yul\":2231:2234   */\n      dup3\n        /* \"#utility.yul\":2224:2258   */\n      mstore\n        /* \"#utility.yul\":2155:2264   */\n      pop\n      pop\n      jump\t// out\n        /* \"#utility.yul\":2270:2385   */\n    tag_79:\n        /* \"#utility.yul\":2355:2378   */\n      tag_81\n        /* \"#utility.yul\":2372:2377   */\n      dup2\n        /* \"#utility.yul\":2355:2378   */\n      tag_82\n      jump\t// in\n    tag_81:\n        /* \"#utility.yul\":2350:2353   */\n      dup3\n        /* \"#utility.yul\":2343:2379   */\n      mstore\n        /* \"#utility.yul\":2270:2385   */\n      pop\n      pop\n      jump\t// out\n        /* \"#utility.yul\":2391:2755   */\n    tag_83:\n        /* \"#utility.yul\":2479:2482   */\n      0x00\n        /* \"#utility.yul\":2507:2546   */\n      tag_85\n        /* \"#utility.yul\":2540:2545   */\n      dup3\n        /* \"#utility.yul\":2507:2546   */\n      tag_86\n      jump\t// in\n    tag_85:\n        /* \"#utility.yul\":2562:2633   */\n      tag_87\n        /* \"#utility.yul\":2626:2632   */\n      dup2\n        /* \"#utility.yul\":2621:2624   */\n      dup6\n        /* \"#utility.yul\":2562:2633   */\n      tag_88\n      jump\t// in\n    tag_87:\n        /* \"#utility.yul\":2555:2633   */\n      swap4\n      pop\n        /* \"#utility.yul\":2642:2694   */\n      tag_89\n        /* \"#utility.yul\":2687:2693   */\n      dup2\n        /* \"#utility.yul\":2682:2685   */\n      dup6\n        /* \"#utility.yul\":2675:2679   */\n      0x20\n        /* \"#utility.yul\":2668:2673   */\n      dup7\n        /* \"#utility.yul\":2664:2680   */\n      add\n        /* \"#utility.yul\":2642:2694   */\n      tag_90\n      jump\t// in\n    tag_89:\n        /* \"#utility.yul\":2719:2748   */\n      tag_91\n        /* \"#utility.yul\":2741:2747   */\n      dup2\n        /* \"#utility.yul\":2719:2748   */\n      tag_92\n      jump\t// in\n    tag_91:\n        /* \"#utility.yul\":2714:2717   */\n      dup5\n        /* \"#utility.yul\":2710:2749   */\n      add\n        /* \"#utility.yul\":2703:2749   */\n      swap2\n      pop\n        /* \"#utility.yul\":2483:2755   */\n      pop\n        /* \"#utility.yul\":2391:2755   */\n      swap3\n      swap2\n      pop\n      pop\n      jump\t// out\n        /* \"#utility.yul\":2761:2879   */\n    tag_93:\n        /* \"#utility.yul\":2848:2872   */\n      tag_95\n        /* \"#utility.yul\":2866:2871   */\n      dup2\n        /* \"#utility.yul\":2848:2872   */\n      tag_96\n      jump\t// in\n    tag_95:\n        /* \"#utility.yul\":2843:2846   */\n      dup3\n        /* \"#utility.yul\":2836:2873   */\n      mstore\n        /* \"#utility.yul\":2761:2879   */\n      pop\n      pop\n      jump\t// out\n        /* \"#utility.yul\":2885:3513   */\n    tag_8:\n        /* \"#utility.yul\":3074:3078   */\n      0x00\n        /* \"#utility.yul\":3112:3115   */\n      0x80\n        /* \"#utility.yul\":3101:3110   */\n      dup3\n        /* \"#utility.yul\":3097:3116   */\n      add\n        /* \"#utility.yul\":3089:3116   */\n      swap1\n      pop\n        /* \"#utility.yul\":3126:3197   */\n      tag_98\n        /* \"#utility.yul\":3194:3195   */\n      0x00\n        /* \"#utility.yul\":3183:3192   */\n      dup4\n        /* \"#utility.yul\":3179:3196   */\n      add\n        /* \"#utility.yul\":3170:3176   */\n      dup8\n        /* \"#utility.yul\":3126:3197   */\n      tag_93\n      jump\t// in\n    tag_98:\n        /* \"#utility.yul\":3207:3277   */\n      tag_99\n        /* \"#utility.yul\":3273:3275   */\n      0x20\n        /* \"#utility.yul\":3262:3271   */\n      dup4\n        /* \"#utility.yul\":3258:3276   */\n      add\n        /* \"#utility.yul\":3249:3255   */\n      dup7\n        /* \"#utility.yul\":3207:3277   */\n      tag_79\n      jump\t// in\n    tag_99:\n        /* \"#utility.yul\":3287:3353   */\n      tag_100\n        /* \"#utility.yul\":3349:3351   */\n      0x40\n        /* \"#utility.yul\":3338:3347   */\n      dup4\n        /* \"#utility.yul\":3334:3352   */\n      add\n        /* \"#utility.yul\":3325:3331   */\n      dup6\n        /* \"#utility.yul\":3287:3353   */\n      tag_75\n      jump\t// in\n    tag_100:\n        /* \"#utility.yul\":3400:3409   */\n      dup2\n        /* \"#utility.yul\":3394:3398   */\n      dup2\n        /* \"#utility.yul\":3390:3410   */\n      sub\n        /* \"#utility.yul\":3385:3387   */\n      0x60\n        /* \"#utility.yul\":3374:3383   */\n      dup4\n        /* \"#utility.yul\":3370:3388   */\n      add\n        /* \"#utility.yul\":3363:3411   */\n      mstore\n        /* \"#utility.yul\":3428:3506   */\n      tag_101\n        /* \"#utility.yul\":3501:3505   */\n      dup2\n        /* \"#utility.yul\":3492:3498   */\n      dup5\n        /* \"#utility.yul\":3428:3506   */\n      tag_83\n      jump\t// in\n    tag_101:\n        /* \"#utility.yul\":3420:3506   */\n      swap1\n      pop\n        /* \"#utility.yul\":2885:3513   */\n      swap6\n      swap5\n      pop\n      pop\n      pop\n      pop\n      pop\n      jump\t// out\n        /* \"#utility.yul\":3519:3648   */\n    tag_40:\n        /* \"#utility.yul\":3553:3559   */\n      0x00\n        /* \"#utility.yul\":3580:3600   */\n      tag_103\n      tag_104\n      jump\t// in\n    tag_103:\n        /* \"#utility.yul\":3570:3600   */\n      swap1\n      pop\n        /* \"#utility.yul\":3609:3642   */\n      tag_105\n        /* \"#utility.yul\":3637:3641   */\n      dup3\n        /* \"#utility.yul\":3629:3635   */\n      dup3\n        /* \"#utility.yul\":3609:3642   */\n      tag_106\n      jump\t// in\n    tag_105:\n        /* \"#utility.yul\":3519:3648   */\n      swap2\n      swap1\n      pop\n      jump\t// out\n        /* \"#utility.yul\":3654:3729   */\n    tag_104:\n        /* \"#utility.yul\":3687:3693   */\n      0x00\n        /* \"#utility.yul\":3720:3722   */\n      0x40\n        /* \"#utility.yul\":3714:3723   */\n      mload\n        /* \"#utility.yul\":3704:3723   */\n      swap1\n      pop\n        /* \"#utility.yul\":3654:3729   */\n      swap1\n      jump\t// out\n        /* \"#utility.yul\":3735:4043   */\n    tag_39:\n        /* \"#utility.yul\":3797:3801   */\n      0x00\n        /* \"#utility.yul\":3887:3905   */\n      0xffffffffffffffff\n        /* \"#utility.yul\":3879:3885   */\n      dup3\n        /* \"#utility.yul\":3876:3906   */\n      gt\n        /* \"#utility.yul\":3873:3929   */\n      iszero\n      tag_109\n      jumpi\n        /* \"#utility.yul\":3909:3927   */\n      tag_110\n      tag_111\n      jump\t// in\n    tag_110:\n        /* \"#utility.yul\":3873:3929   */\n    tag_109:\n        /* \"#utility.yul\":3947:3976   */\n      tag_112\n        /* \"#utility.yul\":3969:3975   */\n      dup3\n        /* \"#utility.yul\":3947:3976   */\n      tag_92\n      jump\t// in\n    tag_112:\n        /* \"#utility.yul\":3939:3976   */\n      swap1\n      pop\n        /* \"#utility.yul\":4031:4035   */\n      0x20\n        /* \"#utility.yul\":4025:4029   */\n      dup2\n        /* \"#utility.yul\":4021:4036   */\n      add\n        /* \"#utility.yul\":4013:4036   */\n      swap1\n      pop\n        /* \"#utility.yul\":3735:4043   */\n      swap2\n      swap1\n      pop\n      jump\t// out\n        /* \"#utility.yul\":4049:4148   */\n    tag_86:\n        /* \"#utility.yul\":4101:4107   */\n      0x00\n        /* \"#utility.yul\":4135:4140   */\n      dup2\n        /* \"#utility.yul\":4129:4141   */\n      mload\n        /* \"#utility.yul\":4119:4141   */\n      swap1\n      pop\n        /* \"#utility.yul\":4049:4148   */\n      swap2\n      swap1\n      pop\n      jump\t// out\n        /* \"#utility.yul\":4154:4323   */\n    tag_88:\n        /* \"#utility.yul\":4238:4249   */\n      0x00\n        /* \"#utility.yul\":4272:4278   */\n      dup3\n        /* \"#utility.yul\":4267:4270   */\n      dup3\n        /* \"#utility.yul\":4260:4279   */\n      mstore\n        /* \"#utility.yul\":4312:4316   */\n      0x20\n        /* \"#utility.yul\":4307:4310   */\n      dup3\n        /* \"#utility.yul\":4303:4317   */\n      add\n        /* \"#utility.yul\":4288:4317   */\n      swap1\n      pop\n        /* \"#utility.yul\":4154:4323   */\n      swap3\n      swap2\n      pop\n      pop\n      jump\t// out\n        /* \"#utility.yul\":4329:4419   */\n    tag_78:\n        /* \"#utility.yul\":4363:4370   */\n      0x00\n        /* \"#utility.yul\":4406:4411   */\n      dup2\n        /* \"#utility.yul\":4399:4412   */\n      iszero\n        /* \"#utility.yul\":4392:4413   */\n      iszero\n        /* \"#utility.yul\":4381:4413   */\n      swap1\n      pop\n        /* \"#utility.yul\":4329:4419   */\n      swap2\n      swap1\n      pop\n      jump\t// out\n        /* \"#utility.yul\":4425:4501   */\n    tag_82:\n        /* \"#utility.yul\":4461:4468   */\n      0x00\n        /* \"#utility.yul\":4490:4495   */\n      dup2\n        /* \"#utility.yul\":4479:4495   */\n      swap1\n      pop\n        /* \"#utility.yul\":4425:4501   */\n      swap2\n      swap1\n      pop\n      jump\t// out\n        /* \"#utility.yul\":4507:4584   */\n    tag_96:\n        /* \"#utility.yul\":4544:4551   */\n      0x00\n        /* \"#utility.yul\":4573:4578   */\n      dup2\n        /* \"#utility.yul\":4562:4578   */\n      swap1\n      pop\n        /* \"#utility.yul\":4507:4584   */\n      swap2\n      swap1\n      pop\n      jump\t// out\n        /* \"#utility.yul\":4590:4744   */\n    tag_45:\n        /* \"#utility.yul\":4674:4680   */\n      dup3\n        /* \"#utility.yul\":4669:4672   */\n      dup2\n        /* \"#utility.yul\":4664:4667   */\n      dup4\n        /* \"#utility.yul\":4651:4681   */\n      calldatacopy\n        /* \"#utility.yul\":4736:4737   */\n      0x00\n        /* \"#utility.yul\":4727:4733   */\n      dup4\n        /* \"#utility.yul\":4722:4725   */\n      dup4\n        /* \"#utility.yul\":4718:4734   */\n      add\n        /* \"#utility.yul\":4711:4738   */\n      mstore\n        /* \"#utility.yul\":4590:4744   */\n      pop\n      pop\n      pop\n      jump\t// out\n        /* \"#utility.yul\":4750:5057   */\n    tag_90:\n        /* \"#utility.yul\":4818:4819   */\n      0x00\n        /* \"#utility.yul\":4828:4941   */\n    tag_120:\n        /* \"#utility.yul\":4842:4848   */\n      dup4\n        /* \"#utility.yul\":4839:4840   */\n      dup2\n        /* \"#utility.yul\":4836:4849   */\n      lt\n        /* \"#utility.yul\":4828:4941   */\n      iszero\n      tag_122\n      jumpi\n        /* \"#utility.yul\":4927:4928   */\n      dup1\n        /* \"#utility.yul\":4922:4925   */\n      dup3\n        /* \"#utility.yul\":4918:4929   */\n      add\n        /* \"#utility.yul\":4912:4930   */\n      mload\n        /* \"#utility.yul\":4908:4909   */\n      dup2\n        /* \"#utility.yul\":4903:4906   */\n      dup5\n        /* \"#utility.yul\":4899:4910   */\n      add\n        /* \"#utility.yul\":4892:4931   */\n      mstore\n        /* \"#utility.yul\":4864:4866   */\n      0x20\n        /* \"#utility.yul\":4861:4862   */\n      dup2\n        /* \"#utility.yul\":4857:4867   */\n      add\n        /* \"#utility.yul\":4852:4867   */\n      swap1\n      pop\n        /* \"#utility.yul\":4828:4941   */\n      jump(tag_120)\n    tag_122:\n        /* \"#utility.yul\":4959:4965   */\n      dup4\n        /* \"#utility.yul\":4956:4957   */\n      dup2\n        /* \"#utility.yul\":4953:4966   */\n      gt\n        /* \"#utility.yul\":4950:5051   */\n      iszero\n      tag_123\n      jumpi\n        /* \"#utility.yul\":5039:5040   */\n      0x00\n        /* \"#utility.yul\":5030:5036   */\n      dup5\n        /* \"#utility.yul\":5025:5028   */\n      dup5\n        /* \"#utility.yul\":5021:5037   */\n      add\n        /* \"#utility.yul\":5014:5041   */\n      mstore\n        /* \"#utility.yul\":4950:5051   */\n    tag_123:\n        /* \"#utility.yul\":4799:5057   */\n      pop\n        /* \"#utility.yul\":4750:5057   */\n      pop\n      pop\n      pop\n      jump\t// out\n        /* \"#utility.yul\":5063:5383   */\n    tag_15:\n        /* \"#utility.yul\":5107:5113   */\n      0x00\n        /* \"#utility.yul\":5144:5145   */\n      0x02\n        /* \"#utility.yul\":5138:5142   */\n      dup3\n        /* \"#utility.yul\":5134:5146   */\n      div\n        /* \"#utility.yul\":5124:5146   */\n      swap1\n      pop\n        /* \"#utility.yul\":5191:5192   */\n      0x01\n        /* \"#utility.yul\":5185:5189   */\n      dup3\n        /* \"#utility.yul\":5181:5193   */\n      and\n        /* \"#utility.yul\":5212:5230   */\n      dup1\n        /* \"#utility.yul\":5202:5283   */\n      tag_125\n      jumpi\n        /* \"#utility.yul\":5268:5272   */\n      0x7f\n        /* \"#utility.yul\":5260:5266   */\n      dup3\n        /* \"#utility.yul\":5256:5273   */\n      and\n        /* \"#utility.yul\":5246:5273   */\n      swap2\n      pop\n        /* \"#utility.yul\":5202:5283   */\n    tag_125:\n        /* \"#utility.yul\":5330:5332   */\n      0x20\n        /* \"#utility.yul\":5322:5328   */\n      dup3\n        /* \"#utility.yul\":5319:5333   */\n      lt\n        /* \"#utility.yul\":5299:5317   */\n      dup2\n        /* \"#utility.yul\":5296:5334   */\n      eq\n        /* \"#utility.yul\":5293:5377   */\n      iszero\n      tag_126\n      jumpi\n        /* \"#utility.yul\":5349:5367   */\n      tag_127\n      tag_128\n      jump\t// in\n    tag_127:\n        /* \"#utility.yul\":5293:5377   */\n    tag_126:\n        /* \"#utility.yul\":5114:5383   */\n      pop\n        /* \"#utility.yul\":5063:5383   */\n      swap2\n      swap1\n      pop\n      jump\t// out\n        /* \"#utility.yul\":5389:5670   */\n    tag_106:\n        /* \"#utility.yul\":5472:5499   */\n      tag_130\n        /* \"#utility.yul\":5494:5498   */\n      dup3\n        /* \"#utility.yul\":5472:5499   */\n      tag_92\n      jump\t// in\n    tag_130:\n        /* \"#utility.yul\":5464:5470   */\n      dup2\n        /* \"#utility.yul\":5460:5500   */\n      add\n        /* \"#utility.yul\":5602:5608   */\n      dup2\n        /* \"#utility.yul\":5590:5600   */\n      dup2\n        /* \"#utility.yul\":5587:5609   */\n      lt\n        /* \"#utility.yul\":5566:5584   */\n      0xffffffffffffffff\n        /* \"#utility.yul\":5554:5564   */\n      dup3\n        /* \"#utility.yul\":5551:5585   */\n      gt\n        /* \"#utility.yul\":5548:5610   */\n      or\n        /* \"#utility.yul\":5545:5633   */\n      iszero\n      tag_131\n      jumpi\n        /* \"#utility.yul\":5613:5631   */\n      tag_132\n      tag_111\n      jump\t// in\n    tag_132:\n        /* \"#utility.yul\":5545:5633   */\n    tag_131:\n        /* \"#utility.yul\":5653:5663   */\n      dup1\n        /* \"#utility.yul\":5649:5651   */\n      0x40\n        /* \"#utility.yul\":5642:5664   */\n      mstore\n        /* \"#utility.yul\":5432:5670   */\n      pop\n        /* \"#utility.yul\":5389:5670   */\n      pop\n      pop\n      jump\t// out\n        /* \"#utility.yul\":5676:5856   */\n    tag_128:\n        /* \"#utility.yul\":5724:5801   */\n      0x4e487b7100000000000000000000000000000000000000000000000000000000\n        /* \"#utility.yul\":5721:5722   */\n      0x00\n        /* \"#utility.yul\":5714:5802   */\n      mstore\n        /* \"#utility.yul\":5821:5825   */\n      0x22\n        /* \"#utility.yul\":5818:5819   */\n      0x04\n        /* \"#utility.yul\":5811:5826   */\n      mstore\n        /* \"#utility.yul\":5845:5849   */\n      0x24\n        /* \"#utility.yul\":5842:5843   */\n      0x00\n        /* \"#utility.yul\":5835:5850   */\n      revert\n        /* \"#utility.yul\":5862:6042   */\n    tag_111:\n        /* \"#utility.yul\":5910:5987   */\n      0x4e487b7100000000000000000000000000000000000000000000000000000000\n        /* \"#utility.yul\":5907:5908   */\n      0x00\n        /* \"#utility.yul\":5900:5988   */\n      mstore\n        /* \"#utility.yul\":6007:6011   */\n      0x41\n        /* \"#utility.yul\":6004:6005   */\n      0x04\n        /* \"#utility.yul\":5997:6012   */\n      mstore\n        /* \"#utility.yul\":6031:6035   */\n      0x24\n        /* \"#utility.yul\":6028:6029   */\n      0x00\n        /* \"#utility.yul\":6021:6036   */\n      revert\n        /* \"#utility.yul\":6048:6165   */\n    tag_58:\n        /* \"#utility.yul\":6157:6158   */\n      0x00\n        /* \"#utility.yul\":6154:6155   */\n      dup1\n        /* \"#utility.yul\":6147:6159   */\n      revert\n        /* \"#utility.yul\":6171:6288   */\n    tag_43:\n        /* \"#utility.yul\":6280:6281   */\n      0x00\n        /* \"#utility.yul\":6277:6278   */\n      dup1\n        /* \"#utility.yul\":6270:6282   */\n      revert\n        /* \"#utility.yul\":6294:6411   */\n    tag_71:\n        /* \"#utility.yul\":6403:6404   */\n      0x00\n        /* \"#utility.yul\":6400:6401   */\n      dup1\n        /* \"#utility.yul\":6393:6405   */\n      revert\n        /* \"#utility.yul\":6417:6534   */\n    tag_67:\n        /* \"#utility.yul\":6526:6527   */\n      0x00\n        /* \"#utility.yul\":6523:6524   */\n      dup1\n        /* \"#utility.yul\":6516:6528   */\n      revert\n        /* \"#utility.yul\":6540:6642   */\n    tag_92:\n        /* \"#utility.yul\":6581:6587   */\n      0x00\n        /* \"#utility.yul\":6632:6634   */\n      0x1f\n        /* \"#utility.yul\":6628:6635   */\n      not\n        /* \"#utility.yul\":6623:6625   */\n      0x1f\n        /* \"#utility.yul\":6616:6621   */\n      dup4\n        /* \"#utility.yul\":6612:6626   */\n      add\n        /* \"#utility.yul\":6608:6636   */\n      and\n        /* \"#utility.yul\":6598:6636   */\n      swap1\n      pop\n        /* \"#utility.yul\":6540:6642   */\n      swap2\n      swap1\n      pop\n      jump\t// out\n        /* \"#utility.yul\":6648:6764   */\n    tag_49:\n        /* \"#utility.yul\":6718:6739   */\n      tag_141\n        /* \"#utility.yul\":6733:6738   */\n      dup2\n        /* \"#utility.yul\":6718:6739   */\n      tag_78\n      jump\t// in\n    tag_141:\n        /* \"#utility.yul\":6711:6716   */\n      dup2\n        /* \"#utility.yul\":6708:6740   */\n      eq\n        /* \"#utility.yul\":6698:6758   */\n      tag_142\n      jumpi\n        /* \"#utility.yul\":6754:6755   */\n      0x00\n        /* \"#utility.yul\":6751:6752   */\n      dup1\n        /* \"#utility.yul\":6744:6756   */\n      revert\n        /* \"#utility.yul\":6698:6758   */\n    tag_142:\n        /* \"#utility.yul\":6648:6764   */\n      pop\n      jump\t// out\n        /* \"#utility.yul\":6770:6890   */\n    tag_53:\n        /* \"#utility.yul\":6842:6865   */\n      tag_144\n        /* \"#utility.yul\":6859:6864   */\n      dup2\n        /* \"#utility.yul\":6842:6865   */\n      tag_82\n      jump\t// in\n    tag_144:\n        /* \"#utility.yul\":6835:6840   */\n      dup2\n        /* \"#utility.yul\":6832:6866   */\n      eq\n        /* \"#utility.yul\":6822:6884   */\n      tag_145\n      jumpi\n        /* \"#utility.yul\":6880:6881   */\n      0x00\n        /* \"#utility.yul\":6877:6878   */\n      dup1\n        /* \"#utility.yul\":6870:6882   */\n      revert\n        /* \"#utility.yul\":6822:6884   */\n    tag_145:\n        /* \"#utility.yul\":6770:6890   */\n      pop\n      jump\t// out\n        /* \"#utility.yul\":6896:7018   */\n    tag_63:\n        /* \"#utility.yul\":6969:6993   */\n      tag_147\n        /* \"#utility.yul\":6987:6992   */\n      dup2\n        /* \"#utility.yul\":6969:6993   */\n      tag_96\n      jump\t// in\n    tag_147:\n        /* \"#utility.yul\":6962:6967   */\n      dup2\n        /* \"#utility.yul\":6959:6994   */\n      eq\n        /* \"#utility.yul\":6949:7012   */\n      tag_148\n      jumpi\n        /* \"#utility.yul\":7008:7009   */\n      0x00\n        /* \"#utility.yul\":7005:7006   */\n      dup1\n        /* \"#utility.yul\":6998:7010   */\n      revert\n        /* \"#utility.yul\":6949:7012   */\n    tag_148:\n        /* \"#utility.yul\":6896:7018   */\n      pop\n      jump\t// out\n\n    auxdata: 0xa2646970667358221220c8dc05fdc81def4b59fa662e2987ea178082b58904540f377123f8a8a25296d564736f6c63430008070033\n}\n",
				"bytecode": {
					"linkReferences": {},
					"object": "60806040526101c56000556040518060400160405280600281526020017f4869000000000000000000000000000000000000000000000000000000000000815250600190805190602001906100559291906100a7565b506001600260006101000a81548160ff0219169083151502179055507ffffffffffffffffffffffffffffffffffffffffffffffffffffffffffffffffe6003553480156100a157600080fd5b506101ab565b8280546100b39061014a565b90600052602060002090601f0160209004810192826100d5576000855561011c565b82601f106100ee57805160ff191683800117855561011c565b8280016001018555821561011c579182015b8281111561011b578251825591602001919060010190610100565b5b509050610129919061012d565b5090565b5b8082111561014657600081600090555060010161012e565b5090565b6000600282049050600182168061016257607f821691505b602082108114156101765761017561017c565b5b50919050565b7f4e487b7100000000000000000000000000000000000000000000000000000000600052602260045260246000fd5b61064d806101ba6000396000f3fe608060405234801561001057600080fd5b50600436106100365760003560e01c80636d4ce63c1461003b578063d988d39e1461005c575b600080fd5b610043610078565b60405161005394939291906103cc565b60405180910390f35b610076600480360381019061007191906102e3565b610131565b005b60008060006060600054600354600260009054906101000a900460ff1660018080546100a3906104ec565b80601f01602080910402602001604051908101604052809291908181526020018280546100cf906104ec565b801561011c5780601f106100f15761010080835404028352916020019161011c565b820191906000526020600020905b8154815290600101906020018083116100ff57829003601f168201915b50505050509050935093509350935090919293565b83600081905550826001908051906020019061014e929190610191565b50811515600260009054906101000a900460ff161515146101845781600260006101000a81548160ff0219169083151502179055505b8060038190555050505050565b82805461019d906104ec565b90600052602060002090601f0160209004810192826101bf5760008555610206565b82601f106101d857805160ff1916838001178555610206565b82800160010185558215610206579182015b828111156102055782518255916020019190600101906101ea565b5b5090506102139190610217565b5090565b5b80821115610230576000816000905550600101610218565b5090565b60006102476102428461043d565b610418565b905082815260208101848484011115610263576102626105b2565b5b61026e8482856104aa565b509392505050565b600081359050610285816105d2565b92915050565b60008135905061029a816105e9565b92915050565b600082601f8301126102b5576102b46105ad565b5b81356102c5848260208601610234565b91505092915050565b6000813590506102dd81610600565b92915050565b600080600080608085870312156102fd576102fc6105bc565b5b600061030b878288016102ce565b945050602085013567ffffffffffffffff81111561032c5761032b6105b7565b5b610338878288016102a0565b935050604061034987828801610276565b925050606061035a8782880161028b565b91505092959194509250565b61036f8161048a565b82525050565b61037e81610496565b82525050565b600061038f8261046e565b6103998185610479565b93506103a98185602086016104b9565b6103b2816105c1565b840191505092915050565b6103c6816104a0565b82525050565b60006080820190506103e160008301876103bd565b6103ee6020830186610375565b6103fb6040830185610366565b818103606083015261040d8184610384565b905095945050505050565b6000610422610433565b905061042e828261051e565b919050565b6000604051905090565b600067ffffffffffffffff8211156104585761045761057e565b5b610461826105c1565b9050602081019050919050565b600081519050919050565b600082825260208201905092915050565b60008115159050919050565b6000819050919050565b6000819050919050565b82818337600083830152505050565b60005b838110156104d75780820151818401526020810190506104bc565b838111156104e6576000848401525b50505050565b6000600282049050600182168061050457607f821691505b602082108114156105185761051761054f565b5b50919050565b610527826105c1565b810181811067ffffffffffffffff821117156105465761054561057e565b5b80604052505050565b7f4e487b7100000000000000000000000000000000000000000000000000000000600052602260045260246000fd5b7f4e487b7100000000000000000000000000000000000000000000000000000000600052604160045260246000fd5b600080fd5b600080fd5b600080fd5b600080fd5b6000601f19601f8301169050919050565b6105db8161048a565b81146105e657600080fd5b50565b6105f281610496565b81146105fd57600080fd5b50565b610609816104a0565b811461061457600080fd5b5056fea2646970667358221220c8dc05fdc81def4b59fa662e2987ea178082b58904540f377123f8a8a25296d564736f6c63430008070033",
					"opcodes": "PUSH1 0x80 PUSH1 0x40 MSTORE PUSH2 0x1C5 PUSH1 0x0 SSTORE PUSH1 0x40 MLOAD DUP1 PUSH1 0x40 ADD PUSH1 0x40 MSTORE DUP1 PUSH1 0x2 DUP2 MSTORE PUSH1 0x20 ADD PUSH32 0x4869000000000000000000000000000000000000000000000000000000000000 DUP2 MSTORE POP PUSH1 0x1 SWAP1 DUP1 MLOAD SWAP1 PUSH1 0x20 ADD SWAP1 PUSH2 0x55 SWAP3 SWAP2 SWAP1 PUSH2 0xA7 JUMP JUMPDEST POP PUSH1 0x1 PUSH1 0x2 PUSH1 0x0 PUSH2 0x100 EXP DUP2 SLOAD DUP2 PUSH1 0xFF MUL NOT AND SWAP1 DUP4 ISZERO ISZERO MUL OR SWAP1 SSTORE POP PUSH32 0xFFFFFFFFFFFFFFFFFFFFFFFFFFFFFFFFFFFFFFFFFFFFFFFFFFFFFFFFFFFFFFFE PUSH1 0x3 SSTORE CALLVALUE DUP1 ISZERO PUSH2 0xA1 JUMPI PUSH1 0x0 DUP1 REVERT JUMPDEST POP PUSH2 0x1AB JUMP JUMPDEST DUP3 DUP1 SLOAD PUSH2 0xB3 SWAP1 PUSH2 0x14A JUMP JUMPDEST SWAP1 PUSH1 0x0 MSTORE PUSH1 0x20 PUSH1 0x0 KECCAK256 SWAP1 PUSH1 0x1F ADD PUSH1 0x20 SWAP1 DIV DUP2 ADD SWAP3 DUP3 PUSH2 0xD5 JUMPI PUSH1 0x0 DUP6 SSTORE PUSH2 0x11C JUMP JUMPDEST DUP3 PUSH1 0x1F LT PUSH2 0xEE JUMPI DUP1 MLOAD PUSH1 0xFF NOT AND DUP4 DUP1 ADD OR DUP6 SSTORE PUSH2 0x11C JUMP JUMPDEST DUP3 DUP1 ADD PUSH1 0x1 ADD DUP6 SSTORE DUP3 ISZERO PUSH2 0x11C JUMPI SWAP2 DUP3 ADD JUMPDEST DUP3 DUP2 GT ISZERO PUSH2 0x11B JUMPI DUP3 MLOAD DUP3 SSTORE SWAP2 PUSH1 0x20 ADD SWAP2 SWAP1 PUSH1 0x1 ADD SWAP1 PUSH2 0x100 JUMP JUMPDEST JUMPDEST POP SWAP1 POP PUSH2 0x129 SWAP2 SWAP1 PUSH2 0x12D JUMP JUMPDEST POP SWAP1 JUMP JUMPDEST JUMPDEST DUP1 DUP3 GT ISZERO PUSH2 0x146 JUMPI PUSH1 0x0 DUP2 PUSH1 0x0 SWAP1 SSTORE POP PUSH1 0x1 ADD PUSH2 0x12E JUMP JUMPDEST POP SWAP1 JUMP JUMPDEST PUSH1 0x0 PUSH1 0x2 DUP3 DIV SWAP1 POP PUSH1 0x1 DUP3 AND DUP1 PUSH2 0x162 JUMPI PUSH1 0x7F DUP3 AND SWAP2 POP JUMPDEST PUSH1 0x20 DUP3 LT DUP2 EQ ISZERO PUSH2 0x176 JUMPI PUSH2 0x175 PUSH2 0x17C JUMP JUMPDEST JUMPDEST POP SWAP2 SWAP1 POP JUMP JUMPDEST PUSH32 0x4E487B7100000000000000000000000000000000000000000000000000000000 PUSH1 0x0 MSTORE PUSH1 0x22 PUSH1 0x4 MSTORE PUSH1 0x24 PUSH1 0x0 REVERT JUMPDEST PUSH2 0x64D DUP1 PUSH2 0x1BA PUSH1 0x0 CODECOPY PUSH1 0x0 RETURN INVALID PUSH1 0x80 PUSH1 0x40 MSTORE CALLVALUE DUP1 ISZERO PUSH2 0x10 JUMPI PUSH1 0x0 DUP1 REVERT JUMPDEST POP PUSH1 0x4 CALLDATASIZE LT PUSH2 0x36 JUMPI PUSH1 0x0 CALLDATALOAD PUSH1 0xE0 SHR DUP1 PUSH4 0x6D4CE63C EQ PUSH2 0x3B JUMPI DUP1 PUSH4 0xD988D39E EQ PUSH2 0x5C JUMPI JUMPDEST PUSH1 0x0 DUP1 REVERT JUMPDEST PUSH2 0x43 PUSH2 0x78 JUMP JUMPDEST PUSH1 0x40 MLOAD PUSH2 0x53 SWAP5 SWAP4 SWAP3 SWAP2 SWAP1 PUSH2 0x3CC JUMP JUMPDEST PUSH1 0x40 MLOAD DUP1 SWAP2 SUB SWAP1 RETURN JUMPDEST PUSH2 0x76 PUSH1 0x4 DUP1 CALLDATASIZE SUB DUP2 ADD SWAP1 PUSH2 0x71 SWAP2 SWAP1 PUSH2 0x2E3 JUMP JUMPDEST PUSH2 0x131 JUMP JUMPDEST STOP JUMPDEST PUSH1 0x0 DUP1 PUSH1 0x0 PUSH1 0x60 PUSH1 0x0 SLOAD PUSH1 0x3 SLOAD PUSH1 0x2 PUSH1 0x0 SWAP1 SLOAD SWAP1 PUSH2 0x100 EXP SWAP1 DIV PUSH1 0xFF AND PUSH1 0x1 DUP1 DUP1 SLOAD PUSH2 0xA3 SWAP1 PUSH2 0x4EC JUMP JUMPDEST DUP1 PUSH1 0x1F ADD PUSH1 0x20 DUP1 SWAP2 DIV MUL PUSH1 0x20 ADD PUSH1 0x40 MLOAD SWAP1 DUP2 ADD PUSH1 0x40 MSTORE DUP1 SWAP3 SWAP2 SWAP1 DUP2 DUP2 MSTORE PUSH1 0x20 ADD DUP3 DUP1 SLOAD PUSH2 0xCF SWAP1 PUSH2 0x4EC JUMP JUMPDEST DUP1 ISZERO PUSH2 0x11C JUMPI DUP1 PUSH1 0x1F LT PUSH2 0xF1 JUMPI PUSH2 0x100 DUP1 DUP4 SLOAD DIV MUL DUP4 MSTORE SWAP2 PUSH1 0x20 ADD SWAP2 PUSH2 0x11C JUMP JUMPDEST DUP3 ADD SWAP2 SWAP1 PUSH1 0x0 MSTORE PUSH1 0x20 PUSH1 0x0 KECCAK256 SWAP1 JUMPDEST DUP2 SLOAD DUP2 MSTORE SWAP1 PUSH1 0x1 ADD SWAP1 PUSH1 0x20 ADD DUP1 DUP4 GT PUSH2 0xFF JUMPI DUP3 SWAP1 SUB PUSH1 0x1F AND DUP3 ADD SWAP2 JUMPDEST POP POP POP POP POP SWAP1 POP SWAP4 POP SWAP4 POP SWAP4 POP SWAP4 POP SWAP1 SWAP2 SWAP3 SWAP4 JUMP JUMPDEST DUP4 PUSH1 0x0 DUP2 SWAP1 SSTORE POP DUP3 PUSH1 0x1 SWAP1 DUP1 MLOAD SWAP1 PUSH1 0x20 ADD SWAP1 PUSH2 0x14E SWAP3 SWAP2 SWAP1 PUSH2 0x191 JUMP JUMPDEST POP DUP2 ISZERO ISZERO PUSH1 0x2 PUSH1 0x0 SWAP1 SLOAD SWAP1 PUSH2 0x100 EXP SWAP1 DIV PUSH1 0xFF AND ISZERO ISZERO EQ PUSH2 0x184 JUMPI DUP2 PUSH1 0x2 PUSH1 0x0 PUSH2 0x100 EXP DUP2 SLOAD DUP2 PUSH1 0xFF MUL NOT AND SWAP1 DUP4 ISZERO ISZERO MUL OR SWAP1 SSTORE POP JUMPDEST DUP1 PUSH1 0x3 DUP2 SWAP1 SSTORE POP POP POP POP POP JUMP JUMPDEST DUP3 DUP1 SLOAD PUSH2 0x19D SWAP1 PUSH2 0x4EC JUMP JUMPDEST SWAP1 PUSH1 0x0 MSTORE PUSH1 0x20 PUSH1 0x0 KECCAK256 SWAP1 PUSH1 0x1F ADD PUSH1 0x20 SWAP1 DIV DUP2 ADD SWAP3 DUP3 PUSH2 0x1BF JUMPI PUSH1 0x0 DUP6 SSTORE PUSH2 0x206 JUMP JUMPDEST DUP3 PUSH1 0x1F LT PUSH2 0x1D8 JUMPI DUP1 MLOAD PUSH1 0xFF NOT AND DUP4 DUP1 ADD OR DUP6 SSTORE PUSH2 0x206 JUMP JUMPDEST DUP3 DUP1 ADD PUSH1 0x1 ADD DUP6 SSTORE DUP3 ISZERO PUSH2 0x206 JUMPI SWAP2 DUP3 ADD JUMPDEST DUP3 DUP2 GT ISZERO PUSH2 0x205 JUMPI DUP3 MLOAD DUP3 SSTORE SWAP2 PUSH1 0x20 ADD SWAP2 SWAP1 PUSH1 0x1 ADD SWAP1 PUSH2 0x1EA JUMP JUMPDEST JUMPDEST POP SWAP1 POP PUSH2 0x213 SWAP2 SWAP1 PUSH2 0x217 JUMP JUMPDEST POP SWAP1 JUMP JUMPDEST JUMPDEST DUP1 DUP3 GT ISZERO PUSH2 0x230 JUMPI PUSH1 0x0 DUP2 PUSH1 0x0 SWAP1 SSTORE POP PUSH1 0x1 ADD PUSH2 0x218 JUMP JUMPDEST POP SWAP1 JUMP JUMPDEST PUSH1 0x0 PUSH2 0x247 PUSH2 0x242 DUP5 PUSH2 0x43D JUMP JUMPDEST PUSH2 0x418 JUMP JUMPDEST SWAP1 POP DUP3 DUP2 MSTORE PUSH1 0x20 DUP2 ADD DUP5 DUP5 DUP5 ADD GT ISZERO PUSH2 0x263 JUMPI PUSH2 0x262 PUSH2 0x5B2 JUMP JUMPDEST JUMPDEST PUSH2 0x26E DUP5 DUP3 DUP6 PUSH2 0x4AA JUMP JUMPDEST POP SWAP4 SWAP3 POP POP POP JUMP JUMPDEST PUSH1 0x0 DUP2 CALLDATALOAD SWAP1 POP PUSH2 0x285 DUP2 PUSH2 0x5D2 JUMP JUMPDEST SWAP3 SWAP2 POP POP JUMP JUMPDEST PUSH1 0x0 DUP2 CALLDATALOAD SWAP1 POP PUSH2 0x29A DUP2 PUSH2 0x5E9 JUMP JUMPDEST SWAP3 SWAP2 POP POP JUMP JUMPDEST PUSH1 0x0 DUP3 PUSH1 0x1F DUP4 ADD SLT PUSH2 0x2B5 JUMPI PUSH2 0x2B4 PUSH2 0x5AD JUMP JUMPDEST JUMPDEST DUP2 CALLDATALOAD PUSH2 0x2C5 DUP5 DUP3 PUSH1 0x20 DUP7 ADD PUSH2 0x234 JUMP JUMPDEST SWAP2 POP POP SWAP3 SWAP2 POP POP JUMP JUMPDEST PUSH1 0x0 DUP2 CALLDATALOAD SWAP1 POP PUSH2 0x2DD DUP2 PUSH2 0x600 JUMP JUMPDEST SWAP3 SWAP2 POP POP JUMP JUMPDEST PUSH1 0x0 DUP1 PUSH1 0x0 DUP1 PUSH1 0x80 DUP6 DUP8 SUB SLT ISZERO PUSH2 0x2FD JUMPI PUSH2 0x2FC PUSH2 0x5BC JUMP JUMPDEST JUMPDEST PUSH1 0x0 PUSH2 0x30B DUP8 DUP3 DUP9 ADD PUSH2 0x2CE JUMP JUMPDEST SWAP5 POP POP PUSH1 0x20 DUP6 ADD CALLDATALOAD PUSH8 0xFFFFFFFFFFFFFFFF DUP2 GT ISZERO PUSH2 0x32C JUMPI PUSH2 0x32B PUSH2 0x5B7 JUMP JUMPDEST JUMPDEST PUSH2 0x338 DUP8 DUP3 DUP9 ADD PUSH2 0x2A0 JUMP JUMPDEST SWAP4 POP POP PUSH1 0x40 PUSH2 0x349 DUP8 DUP3 DUP9 ADD PUSH2 0x276 JUMP JUMPDEST SWAP3 POP POP PUSH1 0x60 PUSH2 0x35A DUP8 DUP3 DUP9 ADD PUSH2 0x28B JUMP JUMPDEST SWAP2 POP POP SWAP3 SWAP6 SWAP2 SWAP5 POP SWAP3 POP JUMP JUMPDEST PUSH2 0x36F DUP2 PUSH2 0x48A JUMP JUMPDEST DUP3 MSTORE POP POP JUMP JUMPDEST PUSH2 0x37E DUP2 PUSH2 0x496 JUMP JUMPDEST DUP3 MSTORE POP POP JUMP JUMPDEST PUSH1 0x0 PUSH2 0x38F DUP3 PUSH2 0x46E JUMP JUMPDEST PUSH2 0x399 DUP2 DUP6 PUSH2 0x479 JUMP JUMPDEST SWAP4 POP PUSH2 0x3A9 DUP2 DUP6 PUSH1 0x20 DUP7 ADD PUSH2 0x4B9 JUMP JUMPDEST PUSH2 0x3B2 DUP2 PUSH2 0x5C1 JUMP JUMPDEST DUP5 ADD SWAP2 POP POP SWAP3 SWAP2 POP POP JUMP JUMPDEST PUSH2 0x3C6 DUP2 PUSH2 0x4A0 JUMP JUMPDEST DUP3 MSTORE POP POP JUMP JUMPDEST PUSH1 0x0 PUSH1 0x80 DUP3 ADD SWAP1 POP PUSH2 0x3E1 PUSH1 0x0 DUP4 ADD DUP8 PUSH2 0x3BD JUMP JUMPDEST PUSH2 0x3EE PUSH1 0x20 DUP4 ADD DUP7 PUSH2 0x375 JUMP JUMPDEST PUSH2 0x3FB PUSH1 0x40 DUP4 ADD DUP6 PUSH2 0x366 JUMP JUMPDEST DUP2 DUP2 SUB PUSH1 0x60 DUP4 ADD MSTORE PUSH2 0x40D DUP2 DUP5 PUSH2 0x384 JUMP JUMPDEST SWAP1 POP SWAP6 SWAP5 POP POP POP POP POP JUMP JUMPDEST PUSH1 0x0 PUSH2 0x422 PUSH2 0x433 JUMP JUMPDEST SWAP1 POP PUSH2 0x42E DUP3 DUP3 PUSH2 0x51E JUMP JUMPDEST SWAP2 SWAP1 POP JUMP JUMPDEST PUSH1 0x0 PUSH1 0x40 MLOAD SWAP1 POP SWAP1 JUMP JUMPDEST PUSH1 0x0 PUSH8 0xFFFFFFFFFFFFFFFF DUP3 GT ISZERO PUSH2 0x458 JUMPI PUSH2 0x457 PUSH2 0x57E JUMP JUMPDEST JUMPDEST PUSH2 0x461 DUP3 PUSH2 0x5C1 JUMP JUMPDEST SWAP1 POP PUSH1 0x20 DUP2 ADD SWAP1 POP SWAP2 SWAP1 POP JUMP JUMPDEST PUSH1 0x0 DUP2 MLOAD SWAP1 POP SWAP2 SWAP1 POP JUMP JUMPDEST PUSH1 0x0 DUP3 DUP3 MSTORE PUSH1 0x20 DUP3 ADD SWAP1 POP SWAP3 SWAP2 POP POP JUMP JUMPDEST PUSH1 0x0 DUP2 ISZERO ISZERO SWAP1 POP SWAP2 SWAP1 POP JUMP JUMPDEST PUSH1 0x0 DUP2 SWAP1 POP SWAP2 SWAP1 POP JUMP JUMPDEST PUSH1 0x0 DUP2 SWAP1 POP SWAP2 SWAP1 POP JUMP JUMPDEST DUP3 DUP2 DUP4 CALLDATACOPY PUSH1 0x0 DUP4 DUP4 ADD MSTORE POP POP POP JUMP JUMPDEST PUSH1 0x0 JUMPDEST DUP4 DUP2 LT ISZERO PUSH2 0x4D7 JUMPI DUP1 DUP3 ADD MLOAD DUP2 DUP5 ADD MSTORE PUSH1 0x20 DUP2 ADD SWAP1 POP PUSH2 0x4BC JUMP JUMPDEST DUP4 DUP2 GT ISZERO PUSH2 0x4E6 JUMPI PUSH1 0x0 DUP5 DUP5 ADD MSTORE JUMPDEST POP POP POP POP JUMP JUMPDEST PUSH1 0x0 PUSH1 0x2 DUP3 DIV SWAP1 POP PUSH1 0x1 DUP3 AND DUP1 PUSH2 0x504 JUMPI PUSH1 0x7F DUP3 AND SWAP2 POP JUMPDEST PUSH1 0x20 DUP3 LT DUP2 EQ ISZERO PUSH2 0x518 JUMPI PUSH2 0x517 PUSH2 0x54F JUMP JUMPDEST JUMPDEST POP SWAP2 SWAP1 POP JUMP JUMPDEST PUSH2 0x527 DUP3 PUSH2 0x5C1 JUMP JUMPDEST DUP2 ADD DUP2 DUP2 LT PUSH8 0xFFFFFFFFFFFFFFFF DUP3 GT OR ISZERO PUSH2 0x546 JUMPI PUSH2 0x545 PUSH2 0x57E JUMP JUMPDEST JUMPDEST DUP1 PUSH1 0x40 MSTORE POP POP POP JUMP JUMPDEST PUSH32 0x4E487B7100000000000000000000000000000000000000000000000000000000 PUSH1 0x0 MSTORE PUSH1 0x22 PUSH1 0x4 MSTORE PUSH1 0x24 PUSH1 0x0 REVERT JUMPDEST PUSH32 0x4E487B7100000000000000000000000000000000000000000000000000000000 PUSH1 0x0 MSTORE PUSH1 0x41 PUSH1 0x4 MSTORE PUSH1 0x24 PUSH1 0x0 REVERT JUMPDEST PUSH1 0x0 DUP1 REVERT JUMPDEST PUSH1 0x0 DUP1 REVERT JUMPDEST PUSH1 0x0 DUP1 REVERT JUMPDEST PUSH1 0x0 DUP1 REVERT JUMPDEST PUSH1 0x0 PUSH1 0x1F NOT PUSH1 0x1F DUP4 ADD AND SWAP1 POP SWAP2 SWAP1 POP JUMP JUMPDEST PUSH2 0x5DB DUP2 PUSH2 0x48A JUMP JUMPDEST DUP2 EQ PUSH2 0x5E6 JUMPI PUSH1 0x0 DUP1 REVERT JUMPDEST POP JUMP JUMPDEST PUSH2 0x5F2 DUP2 PUSH2 0x496 JUMP JUMPDEST DUP2 EQ PUSH2 0x5FD JUMPI PUSH1 0x0 DUP1 REVERT JUMPDEST POP JUMP JUMPDEST PUSH2 0x609 DUP2 PUSH2 0x4A0 JUMP JUMPDEST DUP2 EQ PUSH2 0x614 JUMPI PUSH1 0x0 DUP1 REVERT JUMPDEST POP JUMP INVALID LOG2 PUSH5 0x6970667358 0x22 SLT KECCAK256 0xC8 0xDC SDIV REVERT 0xC8 SAR 0xEF 0x4B MSIZE STATICCALL PUSH7 0x2E2987EA178082 0xB5 DUP10 DIV SLOAD 0xF CALLDATACOPY PUSH18 0x23F8A8A25296D564736F6C63430008070033 "
				},
				"gasEstimates": {
					"creation": {
						"codeDepositCost": "322600",
						"executionCost": "infinite",
						"totalCost": "infinite"
					},
					"external": {
						"get()": "infinite",
						"set(uint256,string,bool,int256)": "infinite"
					}
				},
				"methodIdentifiers": {
					"get()": "6d4ce63c",
					"set(uint256,string,bool,int256)": "d988d39e"
				}
			},
			"storageLayout": {
				"storage": [
					{
						"astId": 4,
						"contract": "HelloWorld.sol:Printer",
						"label": "a",
						"offset": 0,
						"slot": "0",
						"type": "t_uint256"
					},
					{
						"astId": 7,
						"contract": "HelloWorld.sol:Printer",
						"label": "b",
						"offset": 0,
						"slot": "1",
						"type": "t_string_storage"
					},
					{
						"astId": 10,
						"contract": "HelloWorld.sol:Printer",
						"label": "c",
						"offset": 0,
						"slot": "2",
						"type": "t_bool"
					},
					{
						"astId": 14,
						"contract": "HelloWorld.sol:Printer",
						"label": "d",
						"offset": 0,
						"slot": "3",
						"type": "t_int256"
					}
				],
				"types": {
					"t_bool": {
						"encoding": "inplace",
						"label": "bool",
						"numberOfBytes": "1"
					},
					"t_int256": {
						"encoding": "inplace",
						"label": "int256",
						"numberOfBytes": "32"
					},
					"t_string_storage": {
						"encoding": "bytes",
						"label": "string",
						"numberOfBytes": "32"
					},
					"t_uint256": {
						"encoding": "inplace",
						"label": "uint256",
						"numberOfBytes": "32"
					}
				}
			},
			"userdoc": {
				"kind": "user",
				"methods": {},
				"version": 1
			}
		}
	}
}